{
	"contracts/Certificados.sol": {
		"Certificados": {
			"abi": [
				{
					"anonymous": false,
					"inputs": [
						{
							"indexed": false,
							"internalType": "string",
							"name": "codigo",
							"type": "string"
						},
						{
							"indexed": false,
							"internalType": "string",
							"name": "nombre",
							"type": "string"
						}
					],
					"name": "CertificadoRegistrado",
					"type": "event"
				},
				{
					"anonymous": false,
					"inputs": [
						{
							"indexed": false,
							"internalType": "string",
							"name": "codigo",
							"type": "string"
						},
						{
							"indexed": false,
							"internalType": "bool",
							"name": "valido",
							"type": "bool"
						}
					],
					"name": "CertificadoVerificado",
					"type": "event"
				},
				{
					"anonymous": false,
					"inputs": [
						{
							"indexed": false,
							"internalType": "string",
							"name": "message",
							"type": "string"
						}
					],
					"name": "ErrorRegistration",
					"type": "event"
				},
				{
					"inputs": [
						{
							"internalType": "bytes32",
							"name": "",
							"type": "bytes32"
						}
					],
					"name": "_exists",
					"outputs": [
						{
							"internalType": "bool",
							"name": "",
							"type": "bool"
						}
					],
					"stateMutability": "view",
					"type": "function"
				},
				{
					"inputs": [
						{
							"internalType": "bytes32",
							"name": "",
							"type": "bytes32"
						}
					],
					"name": "certificados",
					"outputs": [
						{
							"internalType": "string",
							"name": "codigo",
							"type": "string"
						},
						{
							"internalType": "string",
							"name": "nombre",
							"type": "string"
						},
						{
							"internalType": "string",
							"name": "metadata",
							"type": "string"
						},
						{
							"internalType": "bool",
							"name": "valido",
							"type": "bool"
						}
					],
					"stateMutability": "view",
					"type": "function"
				},
				{
					"inputs": [
						{
							"internalType": "string",
							"name": "codigo",
							"type": "string"
						},
						{
							"internalType": "string",
							"name": "nombre",
							"type": "string"
						},
						{
							"internalType": "string",
							"name": "metadata",
							"type": "string"
						}
					],
					"name": "registrar",
					"outputs": [],
					"stateMutability": "nonpayable",
					"type": "function"
				},
				{
					"inputs": [
						{
							"internalType": "string",
							"name": "codigo",
							"type": "string"
						},
						{
							"internalType": "bool",
							"name": "valido",
							"type": "bool"
						}
					],
					"name": "setValidity",
					"outputs": [],
					"stateMutability": "nonpayable",
					"type": "function"
				},
				{
					"inputs": [
						{
							"internalType": "string",
							"name": "codigo",
							"type": "string"
						}
					],
					"name": "verificar",
					"outputs": [
						{
							"internalType": "bool",
							"name": "",
							"type": "bool"
						}
					],
					"stateMutability": "view",
					"type": "function"
				}
			],
			"devdoc": {
				"kind": "dev",
				"methods": {},
				"version": 1
			},
			"evm": {
				"assembly": "    /* \"contracts/Certificados.sol\":58:1704  contract Certificados { // <-- La llave se abre aquí y NO se cierra de inmediato... */\n  mstore(0x40, 0x80)\n  callvalue\n  dup1\n  iszero\n  tag_1\n  jumpi\n  0x00\n  dup1\n  revert\ntag_1:\n  pop\n  dataSize(sub_0)\n  dup1\n  dataOffset(sub_0)\n  0x00\n  codecopy\n  0x00\n  return\nstop\n\nsub_0: assembly {\n        /* \"contracts/Certificados.sol\":58:1704  contract Certificados { // <-- La llave se abre aquí y NO se cierra de inmediato... */\n      mstore(0x40, 0x80)\n      callvalue\n      dup1\n      iszero\n      tag_1\n      jumpi\n      0x00\n      dup1\n      revert\n    tag_1:\n      pop\n      jumpi(tag_2, lt(calldatasize, 0x04))\n      shr(0xe0, calldataload(0x00))\n      dup1\n      0x11b09380\n      eq\n      tag_3\n      jumpi\n      dup1\n      0x219c8702\n      eq\n      tag_4\n      jumpi\n      dup1\n      0x481fceca\n      eq\n      tag_5\n      jumpi\n      dup1\n      0x65d9baa7\n      eq\n      tag_6\n      jumpi\n      dup1\n      0xf84cbd4d\n      eq\n      tag_7\n      jumpi\n    tag_2:\n      0x00\n      dup1\n      revert\n        /* \"contracts/Certificados.sol\":314:365  mapping(bytes32 => Certificado) public certificados */\n    tag_3:\n      tag_8\n      tag_9\n      calldatasize\n      0x04\n      tag_10\n      jump\t// in\n    tag_9:\n      tag_11\n      jump\t// in\n    tag_8:\n      mload(0x40)\n      tag_12\n      swap5\n      swap4\n      swap3\n      swap2\n      swap1\n      tag_13\n      jump\t// in\n    tag_12:\n      mload(0x40)\n      dup1\n      swap2\n      sub\n      swap1\n      return\n        /* \"contracts/Certificados.sol\":1354:1702  function setValidity(string memory codigo, bool valido) public {... */\n    tag_4:\n      tag_14\n      tag_15\n      calldatasize\n      0x04\n      tag_16\n      jump\t// in\n    tag_15:\n      tag_17\n      jump\t// in\n    tag_14:\n      stop\n        /* \"contracts/Certificados.sol\":542:1102  function registrar(... */\n    tag_5:\n      tag_14\n      tag_19\n      calldatasize\n      0x04\n      tag_20\n      jump\t// in\n    tag_19:\n      tag_21\n      jump\t// in\n        /* \"contracts/Certificados.sol\":269:308  mapping(bytes32 => bool) public _exists */\n    tag_6:\n      tag_22\n      tag_23\n      calldatasize\n      0x04\n      tag_10\n      jump\t// in\n    tag_23:\n      0x00\n      0x20\n      dup2\n      swap1\n      mstore\n      swap1\n      dup2\n      mstore\n      0x40\n      swap1\n      keccak256\n      sload\n      0xff\n      and\n      dup2\n      jump\n    tag_22:\n      mload(0x40)\n        /* \"#utility.yul\":3621:3635   */\n      swap1\n      iszero\n        /* \"#utility.yul\":3614:3636   */\n      iszero\n        /* \"#utility.yul\":3596:3637   */\n      dup2\n      mstore\n        /* \"#utility.yul\":3584:3586   */\n      0x20\n        /* \"#utility.yul\":3569:3587   */\n      add\n        /* \"contracts/Certificados.sol\":269:308  mapping(bytes32 => bool) public _exists */\n      tag_12\n        /* \"#utility.yul\":3456:3643   */\n      jump\n        /* \"contracts/Certificados.sol\":1108:1348  function verificar(string memory codigo) public view returns (bool) {... */\n    tag_7:\n      tag_22\n      tag_28\n      calldatasize\n      0x04\n      tag_29\n      jump\t// in\n    tag_28:\n      tag_30\n      jump\t// in\n        /* \"contracts/Certificados.sol\":314:365  mapping(bytes32 => Certificado) public certificados */\n    tag_11:\n      mstore(0x20, 0x01)\n      0x00\n      swap1\n      dup2\n      mstore\n      0x40\n      swap1\n      keccak256\n      dup1\n      sload\n      dup2\n      swap1\n      tag_32\n      swap1\n      tag_33\n      jump\t// in\n    tag_32:\n      dup1\n      0x1f\n      add\n      0x20\n      dup1\n      swap2\n      div\n      mul\n      0x20\n      add\n      mload(0x40)\n      swap1\n      dup2\n      add\n      0x40\n      mstore\n      dup1\n      swap3\n      swap2\n      swap1\n      dup2\n      dup2\n      mstore\n      0x20\n      add\n      dup3\n      dup1\n      sload\n      tag_34\n      swap1\n      tag_33\n      jump\t// in\n    tag_34:\n      dup1\n      iszero\n      tag_35\n      jumpi\n      dup1\n      0x1f\n      lt\n      tag_36\n      jumpi\n      0x0100\n      dup1\n      dup4\n      sload\n      div\n      mul\n      dup4\n      mstore\n      swap2\n      0x20\n      add\n      swap2\n      jump(tag_35)\n    tag_36:\n      dup3\n      add\n      swap2\n      swap1\n      0x00\n      mstore\n      keccak256(0x00, 0x20)\n      swap1\n    tag_37:\n      dup2\n      sload\n      dup2\n      mstore\n      swap1\n      0x01\n      add\n      swap1\n      0x20\n      add\n      dup1\n      dup4\n      gt\n      tag_37\n      jumpi\n      dup3\n      swap1\n      sub\n      0x1f\n      and\n      dup3\n      add\n      swap2\n    tag_35:\n      pop\n      pop\n      pop\n      pop\n      pop\n      swap1\n      dup1\n      0x01\n      add\n      dup1\n      sload\n      tag_38\n      swap1\n      tag_33\n      jump\t// in\n    tag_38:\n      dup1\n      0x1f\n      add\n      0x20\n      dup1\n      swap2\n      div\n      mul\n      0x20\n      add\n      mload(0x40)\n      swap1\n      dup2\n      add\n      0x40\n      mstore\n      dup1\n      swap3\n      swap2\n      swap1\n      dup2\n      dup2\n      mstore\n      0x20\n      add\n      dup3\n      dup1\n      sload\n      tag_39\n      swap1\n      tag_33\n      jump\t// in\n    tag_39:\n      dup1\n      iszero\n      tag_40\n      jumpi\n      dup1\n      0x1f\n      lt\n      tag_41\n      jumpi\n      0x0100\n      dup1\n      dup4\n      sload\n      div\n      mul\n      dup4\n      mstore\n      swap2\n      0x20\n      add\n      swap2\n      jump(tag_40)\n    tag_41:\n      dup3\n      add\n      swap2\n      swap1\n      0x00\n      mstore\n      keccak256(0x00, 0x20)\n      swap1\n    tag_42:\n      dup2\n      sload\n      dup2\n      mstore\n      swap1\n      0x01\n      add\n      swap1\n      0x20\n      add\n      dup1\n      dup4\n      gt\n      tag_42\n      jumpi\n      dup3\n      swap1\n      sub\n      0x1f\n      and\n      dup3\n      add\n      swap2\n    tag_40:\n      pop\n      pop\n      pop\n      pop\n      pop\n      swap1\n      dup1\n      0x02\n      add\n      dup1\n      sload\n      tag_43\n      swap1\n      tag_33\n      jump\t// in\n    tag_43:\n      dup1\n      0x1f\n      add\n      0x20\n      dup1\n      swap2\n      div\n      mul\n      0x20\n      add\n      mload(0x40)\n      swap1\n      dup2\n      add\n      0x40\n      mstore\n      dup1\n      swap3\n      swap2\n      swap1\n      dup2\n      dup2\n      mstore\n      0x20\n      add\n      dup3\n      dup1\n      sload\n      tag_44\n      swap1\n      tag_33\n      jump\t// in\n    tag_44:\n      dup1\n      iszero\n      tag_45\n      jumpi\n      dup1\n      0x1f\n      lt\n      tag_46\n      jumpi\n      0x0100\n      dup1\n      dup4\n      sload\n      div\n      mul\n      dup4\n      mstore\n      swap2\n      0x20\n      add\n      swap2\n      jump(tag_45)\n    tag_46:\n      dup3\n      add\n      swap2\n      swap1\n      0x00\n      mstore\n      keccak256(0x00, 0x20)\n      swap1\n    tag_47:\n      dup2\n      sload\n      dup2\n      mstore\n      swap1\n      0x01\n      add\n      swap1\n      0x20\n      add\n      dup1\n      dup4\n      gt\n      tag_47\n      jumpi\n      dup3\n      swap1\n      sub\n      0x1f\n      and\n      dup3\n      add\n      swap2\n    tag_45:\n      pop\n      pop\n      pop\n      0x03\n      swap1\n      swap4\n      add\n      sload\n      swap2\n      swap3\n      pop\n      pop\n      0xff\n      and\n      dup5\n      jump\t// out\n        /* \"contracts/Certificados.sol\":1354:1702  function setValidity(string memory codigo, bool valido) public {... */\n    tag_17:\n        /* \"contracts/Certificados.sol\":1427:1438  bytes32 key */\n      0x00\n        /* \"contracts/Certificados.sol\":1468:1474  codigo */\n      dup3\n        /* \"contracts/Certificados.sol\":1451:1475  abi.encodePacked(codigo) */\n      add(0x20, mload(0x40))\n      tag_49\n      swap2\n      swap1\n      tag_50\n      jump\t// in\n    tag_49:\n      0x40\n      dup1\n      mload\n      not(0x1f)\n      dup2\n      dup5\n      sub\n      add\n      dup2\n      mstore\n      swap2\n      dup2\n      mstore\n        /* \"contracts/Certificados.sol\":1441:1476  keccak256(abi.encodePacked(codigo)) */\n      dup2\n      mload\n        /* \"contracts/Certificados.sol\":1451:1475  abi.encodePacked(codigo) */\n      0x20\n        /* \"contracts/Certificados.sol\":1441:1476  keccak256(abi.encodePacked(codigo)) */\n      swap3\n      dup4\n      add\n      keccak256\n        /* \"contracts/Certificados.sol\":1491:1498  _exists */\n      0x00\n        /* \"contracts/Certificados.sol\":1491:1503  _exists[key] */\n      dup2\n      dup2\n      mstore\n      swap3\n      dup4\n      swap1\n      mstore\n      swap2\n      keccak256\n      sload\n        /* \"contracts/Certificados.sol\":1441:1476  keccak256(abi.encodePacked(codigo)) */\n      swap1\n      swap2\n      pop\n        /* \"contracts/Certificados.sol\":1491:1503  _exists[key] */\n      0xff\n      and\n        /* \"contracts/Certificados.sol\":1486:1601  if (!_exists[key]) {... */\n      tag_51\n      jumpi\n        /* \"contracts/Certificados.sol\":1524:1570  ErrorRegistration(\"Certificado no encontrado\") */\n      0x431ec5de6504bdcd6675c40ebdb70af1d383d6bf7d1e8cb58cce73993492e3c3\n      mload(0x40)\n      tag_52\n      swap1\n        /* \"#utility.yul\":4856:4858   */\n      0x20\n        /* \"#utility.yul\":4838:4859   */\n      dup1\n      dup3\n      mstore\n        /* \"#utility.yul\":4895:4897   */\n      0x19\n        /* \"#utility.yul\":4875:4893   */\n      swap1\n      dup3\n      add\n        /* \"#utility.yul\":4868:4898   */\n      mstore\n        /* \"#utility.yul\":4934:4961   */\n      0x436572746966696361646f206e6f20656e636f6e747261646f00000000000000\n        /* \"#utility.yul\":4929:4931   */\n      0x40\n        /* \"#utility.yul\":4914:4932   */\n      dup3\n      add\n        /* \"#utility.yul\":4907:4962   */\n      mstore\n        /* \"#utility.yul\":4994:4996   */\n      0x60\n        /* \"#utility.yul\":4979:4997   */\n      add\n      swap1\n        /* \"#utility.yul\":4654:5003   */\n      jump\n        /* \"contracts/Certificados.sol\":1524:1570  ErrorRegistration(\"Certificado no encontrado\") */\n    tag_52:\n      mload(0x40)\n      dup1\n      swap2\n      sub\n      swap1\n      log1\n        /* \"contracts/Certificados.sol\":1584:1591  return; */\n      pop\n        /* \"contracts/Certificados.sol\":1354:1702  function setValidity(string memory codigo, bool valido) public {... */\n      pop\n      pop\n      jump\t// out\n        /* \"contracts/Certificados.sol\":1486:1601  if (!_exists[key]) {... */\n    tag_51:\n        /* \"contracts/Certificados.sol\":1610:1627  certificados[key] */\n      0x00\n      dup2\n      dup2\n      mstore\n        /* \"contracts/Certificados.sol\":1610:1622  certificados */\n      0x01\n        /* \"contracts/Certificados.sol\":1610:1627  certificados[key] */\n      0x20\n      mstore\n      0x40\n      swap1\n      dup2\n      swap1\n      keccak256\n        /* \"contracts/Certificados.sol\":1610:1634  certificados[key].valido */\n      0x03\n      add\n        /* \"contracts/Certificados.sol\":1610:1643  certificados[key].valido = valido */\n      dup1\n      sload\n      not(0xff)\n      and\n      dup5\n      iszero\n      iszero\n      or\n      swap1\n      sstore\n        /* \"contracts/Certificados.sol\":1658:1695  CertificadoVerificado(codigo, valido) */\n      mload\n      0xb2b3273e6a00776d5925f79dc9dde1574c39a021673d7a34039991cbb84c89b3\n      swap1\n      tag_52\n      swap1\n        /* \"contracts/Certificados.sol\":1680:1686  codigo */\n      dup6\n      swap1\n        /* \"contracts/Certificados.sol\":1610:1643  certificados[key].valido = valido */\n      dup6\n      swap1\n        /* \"contracts/Certificados.sol\":1658:1695  CertificadoVerificado(codigo, valido) */\n      tag_55\n      jump\t// in\n        /* \"contracts/Certificados.sol\":542:1102  function registrar(... */\n    tag_21:\n        /* \"contracts/Certificados.sol\":676:687  bytes32 key */\n      0x00\n        /* \"contracts/Certificados.sol\":717:723  codigo */\n      dup4\n        /* \"contracts/Certificados.sol\":700:724  abi.encodePacked(codigo) */\n      add(0x20, mload(0x40))\n      tag_57\n      swap2\n      swap1\n      tag_50\n      jump\t// in\n    tag_57:\n      0x40\n      dup1\n      mload\n      not(0x1f)\n      dup2\n      dup5\n      sub\n      add\n      dup2\n      mstore\n      swap2\n      dup2\n      mstore\n        /* \"contracts/Certificados.sol\":690:725  keccak256(abi.encodePacked(codigo)) */\n      dup2\n      mload\n        /* \"contracts/Certificados.sol\":700:724  abi.encodePacked(codigo) */\n      0x20\n        /* \"contracts/Certificados.sol\":690:725  keccak256(abi.encodePacked(codigo)) */\n      swap3\n      dup4\n      add\n      keccak256\n        /* \"contracts/Certificados.sol\":739:746  _exists */\n      0x00\n        /* \"contracts/Certificados.sol\":739:751  _exists[key] */\n      dup2\n      dup2\n      mstore\n      swap3\n      dup4\n      swap1\n      mstore\n      swap2\n      keccak256\n      sload\n        /* \"contracts/Certificados.sol\":690:725  keccak256(abi.encodePacked(codigo)) */\n      swap1\n      swap2\n      pop\n        /* \"contracts/Certificados.sol\":739:751  _exists[key] */\n      0xff\n      and\n        /* \"contracts/Certificados.sol\":735:848  if (_exists[key]) {... */\n      iszero\n      tag_58\n      jumpi\n        /* \"contracts/Certificados.sol\":772:817  ErrorRegistration(\"El certificado ya existe\") */\n      0x431ec5de6504bdcd6675c40ebdb70af1d383d6bf7d1e8cb58cce73993492e3c3\n      mload(0x40)\n      tag_59\n      swap1\n        /* \"#utility.yul\":5516:5518   */\n      0x20\n        /* \"#utility.yul\":5498:5519   */\n      dup1\n      dup3\n      mstore\n        /* \"#utility.yul\":5555:5557   */\n      0x18\n        /* \"#utility.yul\":5535:5553   */\n      swap1\n      dup3\n      add\n        /* \"#utility.yul\":5528:5558   */\n      mstore\n        /* \"#utility.yul\":5594:5620   */\n      0x456c20636572746966696361646f207961206578697374650000000000000000\n        /* \"#utility.yul\":5589:5591   */\n      0x40\n        /* \"#utility.yul\":5574:5592   */\n      dup3\n      add\n        /* \"#utility.yul\":5567:5621   */\n      mstore\n        /* \"#utility.yul\":5653:5655   */\n      0x60\n        /* \"#utility.yul\":5638:5656   */\n      add\n      swap1\n        /* \"#utility.yul\":5314:5662   */\n      jump\n        /* \"contracts/Certificados.sol\":772:817  ErrorRegistration(\"El certificado ya existe\") */\n    tag_59:\n      mload(0x40)\n      dup1\n      swap2\n      sub\n      swap1\n      log1\n        /* \"contracts/Certificados.sol\":831:838  return; */\n      pop\n        /* \"contracts/Certificados.sol\":542:1102  function registrar(... */\n      pop\n      pop\n      pop\n      jump\t// out\n        /* \"contracts/Certificados.sol\":735:848  if (_exists[key]) {... */\n    tag_58:\n        /* \"contracts/Certificados.sol\":877:1014  Certificado({... */\n      0x40\n      dup1\n      mload\n      0x80\n      dup2\n      add\n      dup3\n      mstore\n      dup6\n      dup2\n      mstore\n      0x20\n      dup1\n      dup3\n      add\n      dup7\n      swap1\n      mstore\n      dup2\n      dup4\n      add\n      dup6\n      swap1\n      mstore\n        /* \"contracts/Certificados.sol\":999:1003  true */\n      0x01\n        /* \"contracts/Certificados.sol\":877:1014  Certificado({... */\n      0x60\n      dup4\n      add\n      dup2\n      swap1\n      mstore\n      0x00\n        /* \"contracts/Certificados.sol\":857:874  certificados[key] */\n      dup6\n      dup2\n      mstore\n      swap2\n      mstore\n      swap2\n      swap1\n      swap2\n      keccak256\n        /* \"contracts/Certificados.sol\":857:1014  certificados[key] = Certificado({... */\n      dup2\n      mload\n        /* \"contracts/Certificados.sol\":857:874  certificados[key] */\n      dup2\n      swap1\n        /* \"contracts/Certificados.sol\":857:1014  certificados[key] = Certificado({... */\n      tag_61\n      swap1\n        /* \"contracts/Certificados.sol\":857:874  certificados[key] */\n      dup3\n        /* \"contracts/Certificados.sol\":857:1014  certificados[key] = Certificado({... */\n      tag_62\n      jump\t// in\n    tag_61:\n      pop\n      0x20\n      dup3\n      add\n      mload\n      0x01\n      dup3\n      add\n      swap1\n      tag_63\n      swap1\n      dup3\n      tag_62\n      jump\t// in\n    tag_63:\n      pop\n      0x40\n      dup3\n      add\n      mload\n      0x02\n      dup3\n      add\n      swap1\n      tag_64\n      swap1\n      dup3\n      tag_62\n      jump\t// in\n    tag_64:\n      pop\n      0x60\n      swap2\n      swap1\n      swap2\n      add\n      mload\n      0x03\n      swap1\n      swap2\n      add\n      dup1\n      sload\n      swap2\n      iszero\n      iszero\n      not(0xff)\n      swap3\n      dup4\n      and\n      or\n      swap1\n      sstore\n      0x00\n        /* \"contracts/Certificados.sol\":1024:1036  _exists[key] */\n      dup3\n      dup2\n      mstore\n      0x20\n      dup2\n      swap1\n      mstore\n      0x40\n      swap1\n      dup2\n      swap1\n      keccak256\n        /* \"contracts/Certificados.sol\":1024:1043  _exists[key] = true */\n      dup1\n      sload\n      swap1\n      swap3\n      and\n        /* \"contracts/Certificados.sol\":857:1014  certificados[key] = Certificado({... */\n      0x01\n        /* \"contracts/Certificados.sol\":1024:1043  _exists[key] = true */\n      or\n      swap1\n      swap2\n      sstore\n        /* \"contracts/Certificados.sol\":1058:1095  CertificadoRegistrado(codigo, nombre) */\n      mload\n      0x42a3f7f7d5170c62660cf6c20adacd5846587724d84a500a1bf1988af28b9021\n      swap1\n      tag_59\n      swap1\n        /* \"contracts/Certificados.sol\":1080:1086  codigo */\n      dup7\n      swap1\n        /* \"contracts/Certificados.sol\":1088:1094  nombre */\n      dup7\n      swap1\n        /* \"contracts/Certificados.sol\":1058:1095  CertificadoRegistrado(codigo, nombre) */\n      tag_66\n      jump\t// in\n        /* \"contracts/Certificados.sol\":1108:1348  function verificar(string memory codigo) public view returns (bool) {... */\n    tag_30:\n        /* \"contracts/Certificados.sol\":1170:1174  bool */\n      0x00\n        /* \"contracts/Certificados.sol\":1186:1197  bytes32 key */\n      dup1\n        /* \"contracts/Certificados.sol\":1227:1233  codigo */\n      dup3\n        /* \"contracts/Certificados.sol\":1210:1234  abi.encodePacked(codigo) */\n      add(0x20, mload(0x40))\n      tag_68\n      swap2\n      swap1\n      tag_50\n      jump\t// in\n    tag_68:\n      0x40\n      dup1\n      mload\n      not(0x1f)\n      dup2\n      dup5\n      sub\n      add\n      dup2\n      mstore\n      swap2\n      dup2\n      mstore\n        /* \"contracts/Certificados.sol\":1200:1235  keccak256(abi.encodePacked(codigo)) */\n      dup2\n      mload\n        /* \"contracts/Certificados.sol\":1210:1234  abi.encodePacked(codigo) */\n      0x20\n        /* \"contracts/Certificados.sol\":1200:1235  keccak256(abi.encodePacked(codigo)) */\n      swap3\n      dup4\n      add\n      keccak256\n        /* \"contracts/Certificados.sol\":1250:1257  _exists */\n      0x00\n        /* \"contracts/Certificados.sol\":1250:1262  _exists[key] */\n      dup2\n      dup2\n      mstore\n      swap3\n      dup4\n      swap1\n      mstore\n      swap2\n      keccak256\n      sload\n        /* \"contracts/Certificados.sol\":1200:1235  keccak256(abi.encodePacked(codigo)) */\n      swap1\n      swap2\n      pop\n        /* \"contracts/Certificados.sol\":1250:1262  _exists[key] */\n      0xff\n      and\n        /* \"contracts/Certificados.sol\":1245:1301  if (!_exists[key]) {... */\n      tag_69\n      jumpi\n      pop\n        /* \"contracts/Certificados.sol\":1285:1290  false */\n      0x00\n      swap3\n        /* \"contracts/Certificados.sol\":1108:1348  function verificar(string memory codigo) public view returns (bool) {... */\n      swap2\n      pop\n      pop\n      jump\t// out\n        /* \"contracts/Certificados.sol\":1245:1301  if (!_exists[key]) {... */\n    tag_69:\n        /* \"contracts/Certificados.sol\":1317:1334  certificados[key] */\n      0x00\n      swap1\n      dup2\n      mstore\n        /* \"contracts/Certificados.sol\":1317:1329  certificados */\n      0x01\n        /* \"contracts/Certificados.sol\":1317:1334  certificados[key] */\n      0x20\n      mstore\n      0x40\n      swap1\n      keccak256\n        /* \"contracts/Certificados.sol\":1317:1341  certificados[key].valido */\n      0x03\n      add\n      sload\n      0xff\n      and\n      swap3\n        /* \"contracts/Certificados.sol\":1108:1348  function verificar(string memory codigo) public view returns (bool) {... */\n      swap2\n      pop\n      pop\n      jump\t// out\n        /* \"#utility.yul\":14:194   */\n    tag_10:\n        /* \"#utility.yul\":73:79   */\n      0x00\n        /* \"#utility.yul\":126:128   */\n      0x20\n        /* \"#utility.yul\":114:123   */\n      dup3\n        /* \"#utility.yul\":105:112   */\n      dup5\n        /* \"#utility.yul\":101:124   */\n      sub\n        /* \"#utility.yul\":97:129   */\n      slt\n        /* \"#utility.yul\":94:146   */\n      iszero\n      tag_79\n      jumpi\n        /* \"#utility.yul\":142:143   */\n      0x00\n        /* \"#utility.yul\":139:140   */\n      dup1\n        /* \"#utility.yul\":132:144   */\n      revert\n        /* \"#utility.yul\":94:146   */\n    tag_79:\n      pop\n        /* \"#utility.yul\":165:188   */\n      calldataload\n      swap2\n        /* \"#utility.yul\":14:194   */\n      swap1\n      pop\n      jump\t// out\n        /* \"#utility.yul\":199:449   */\n    tag_70:\n        /* \"#utility.yul\":284:285   */\n      0x00\n        /* \"#utility.yul\":294:407   */\n    tag_81:\n        /* \"#utility.yul\":308:314   */\n      dup4\n        /* \"#utility.yul\":305:306   */\n      dup2\n        /* \"#utility.yul\":302:315   */\n      lt\n        /* \"#utility.yul\":294:407   */\n      iszero\n      tag_83\n      jumpi\n        /* \"#utility.yul\":384:395   */\n      dup2\n      dup2\n      add\n        /* \"#utility.yul\":378:396   */\n      mload\n        /* \"#utility.yul\":365:376   */\n      dup4\n      dup3\n      add\n        /* \"#utility.yul\":358:397   */\n      mstore\n        /* \"#utility.yul\":330:332   */\n      0x20\n        /* \"#utility.yul\":323:333   */\n      add\n        /* \"#utility.yul\":294:407   */\n      jump(tag_81)\n    tag_83:\n      pop\n      pop\n        /* \"#utility.yul\":441:442   */\n      0x00\n        /* \"#utility.yul\":423:439   */\n      swap2\n      add\n        /* \"#utility.yul\":416:443   */\n      mstore\n        /* \"#utility.yul\":199:449   */\n      jump\t// out\n        /* \"#utility.yul\":454:725   */\n    tag_71:\n        /* \"#utility.yul\":496:499   */\n      0x00\n        /* \"#utility.yul\":534:539   */\n      dup2\n        /* \"#utility.yul\":528:540   */\n      mload\n        /* \"#utility.yul\":561:567   */\n      dup1\n        /* \"#utility.yul\":556:559   */\n      dup5\n        /* \"#utility.yul\":549:568   */\n      mstore\n        /* \"#utility.yul\":577:653   */\n      tag_85\n        /* \"#utility.yul\":646:652   */\n      dup2\n        /* \"#utility.yul\":639:643   */\n      0x20\n        /* \"#utility.yul\":634:637   */\n      dup7\n        /* \"#utility.yul\":630:644   */\n      add\n        /* \"#utility.yul\":623:627   */\n      0x20\n        /* \"#utility.yul\":616:621   */\n      dup7\n        /* \"#utility.yul\":612:628   */\n      add\n        /* \"#utility.yul\":577:653   */\n      tag_70\n      jump\t// in\n    tag_85:\n        /* \"#utility.yul\":707:709   */\n      0x1f\n        /* \"#utility.yul\":686:701   */\n      add\n      not(0x1f)\n        /* \"#utility.yul\":682:711   */\n      and\n        /* \"#utility.yul\":673:712   */\n      swap3\n      swap1\n      swap3\n      add\n        /* \"#utility.yul\":714:718   */\n      0x20\n        /* \"#utility.yul\":669:719   */\n      add\n      swap3\n        /* \"#utility.yul\":454:725   */\n      swap2\n      pop\n      pop\n      jump\t// out\n        /* \"#utility.yul\":730:1359   */\n    tag_13:\n        /* \"#utility.yul\":997:1000   */\n      0x80\n        /* \"#utility.yul\":986:995   */\n      dup2\n        /* \"#utility.yul\":979:1001   */\n      mstore\n        /* \"#utility.yul\":960:964   */\n      0x00\n        /* \"#utility.yul\":1024:1070   */\n      tag_87\n        /* \"#utility.yul\":1065:1068   */\n      0x80\n        /* \"#utility.yul\":1054:1063   */\n      dup4\n        /* \"#utility.yul\":1050:1069   */\n      add\n        /* \"#utility.yul\":1042:1048   */\n      dup8\n        /* \"#utility.yul\":1024:1070   */\n      tag_71\n      jump\t// in\n    tag_87:\n        /* \"#utility.yul\":1118:1127   */\n      dup3\n        /* \"#utility.yul\":1110:1116   */\n      dup2\n        /* \"#utility.yul\":1106:1128   */\n      sub\n        /* \"#utility.yul\":1101:1103   */\n      0x20\n        /* \"#utility.yul\":1090:1099   */\n      dup5\n        /* \"#utility.yul\":1086:1104   */\n      add\n        /* \"#utility.yul\":1079:1129   */\n      mstore\n        /* \"#utility.yul\":1152:1185   */\n      tag_88\n        /* \"#utility.yul\":1178:1184   */\n      dup2\n        /* \"#utility.yul\":1170:1176   */\n      dup8\n        /* \"#utility.yul\":1152:1185   */\n      tag_71\n      jump\t// in\n    tag_88:\n        /* \"#utility.yul\":1138:1185   */\n      swap1\n      pop\n        /* \"#utility.yul\":1233:1242   */\n      dup3\n        /* \"#utility.yul\":1225:1231   */\n      dup2\n        /* \"#utility.yul\":1221:1243   */\n      sub\n        /* \"#utility.yul\":1216:1218   */\n      0x40\n        /* \"#utility.yul\":1205:1214   */\n      dup5\n        /* \"#utility.yul\":1201:1219   */\n      add\n        /* \"#utility.yul\":1194:1244   */\n      mstore\n        /* \"#utility.yul\":1261:1294   */\n      tag_89\n        /* \"#utility.yul\":1287:1293   */\n      dup2\n        /* \"#utility.yul\":1279:1285   */\n      dup7\n        /* \"#utility.yul\":1261:1294   */\n      tag_71\n      jump\t// in\n    tag_89:\n        /* \"#utility.yul\":1253:1294   */\n      swap2\n      pop\n      pop\n        /* \"#utility.yul\":1344:1350   */\n      dup3\n        /* \"#utility.yul\":1337:1351   */\n      iszero\n        /* \"#utility.yul\":1330:1352   */\n      iszero\n        /* \"#utility.yul\":1325:1327   */\n      0x60\n        /* \"#utility.yul\":1314:1323   */\n      dup4\n        /* \"#utility.yul\":1310:1328   */\n      add\n        /* \"#utility.yul\":1303:1353   */\n      mstore\n        /* \"#utility.yul\":730:1359   */\n      swap6\n      swap5\n      pop\n      pop\n      pop\n      pop\n      pop\n      jump\t// out\n        /* \"#utility.yul\":1364:1491   */\n    tag_72:\n        /* \"#utility.yul\":1425:1435   */\n      0x4e487b71\n        /* \"#utility.yul\":1420:1423   */\n      0xe0\n        /* \"#utility.yul\":1416:1436   */\n      shl\n        /* \"#utility.yul\":1413:1414   */\n      0x00\n        /* \"#utility.yul\":1406:1437   */\n      mstore\n        /* \"#utility.yul\":1456:1460   */\n      0x41\n        /* \"#utility.yul\":1453:1454   */\n      0x04\n        /* \"#utility.yul\":1446:1461   */\n      mstore\n        /* \"#utility.yul\":1480:1484   */\n      0x24\n        /* \"#utility.yul\":1477:1478   */\n      0x00\n        /* \"#utility.yul\":1470:1485   */\n      revert\n        /* \"#utility.yul\":1496:2215   */\n    tag_73:\n        /* \"#utility.yul\":1539:1544   */\n      0x00\n        /* \"#utility.yul\":1592:1595   */\n      dup3\n        /* \"#utility.yul\":1585:1589   */\n      0x1f\n        /* \"#utility.yul\":1577:1583   */\n      dup4\n        /* \"#utility.yul\":1573:1590   */\n      add\n        /* \"#utility.yul\":1569:1596   */\n      slt\n        /* \"#utility.yul\":1559:1614   */\n      tag_92\n      jumpi\n        /* \"#utility.yul\":1610:1611   */\n      0x00\n        /* \"#utility.yul\":1607:1608   */\n      dup1\n        /* \"#utility.yul\":1600:1612   */\n      revert\n        /* \"#utility.yul\":1559:1614   */\n    tag_92:\n        /* \"#utility.yul\":1646:1652   */\n      dup2\n        /* \"#utility.yul\":1633:1653   */\n      calldataload\n        /* \"#utility.yul\":1672:1690   */\n      0xffffffffffffffff\n        /* \"#utility.yul\":1709:1711   */\n      dup1\n        /* \"#utility.yul\":1705:1707   */\n      dup3\n        /* \"#utility.yul\":1702:1712   */\n      gt\n        /* \"#utility.yul\":1699:1735   */\n      iszero\n      tag_94\n      jumpi\n        /* \"#utility.yul\":1715:1733   */\n      tag_94\n      tag_72\n      jump\t// in\n    tag_94:\n        /* \"#utility.yul\":1790:1792   */\n      0x40\n        /* \"#utility.yul\":1784:1793   */\n      mload\n        /* \"#utility.yul\":1758:1760   */\n      0x1f\n        /* \"#utility.yul\":1844:1857   */\n      dup4\n      add\n      not(0x1f)\n        /* \"#utility.yul\":1840:1862   */\n      swap1\n      dup2\n      and\n        /* \"#utility.yul\":1864:1866   */\n      0x3f\n        /* \"#utility.yul\":1836:1867   */\n      add\n        /* \"#utility.yul\":1832:1872   */\n      and\n        /* \"#utility.yul\":1820:1873   */\n      dup2\n      add\n      swap1\n        /* \"#utility.yul\":1888:1906   */\n      dup3\n      dup3\n      gt\n        /* \"#utility.yul\":1908:1930   */\n      dup2\n      dup4\n      lt\n        /* \"#utility.yul\":1885:1931   */\n      or\n        /* \"#utility.yul\":1882:1954   */\n      iszero\n      tag_96\n      jumpi\n        /* \"#utility.yul\":1934:1952   */\n      tag_96\n      tag_72\n      jump\t// in\n    tag_96:\n        /* \"#utility.yul\":1974:1984   */\n      dup2\n        /* \"#utility.yul\":1970:1972   */\n      0x40\n        /* \"#utility.yul\":1963:1985   */\n      mstore\n        /* \"#utility.yul\":2009:2011   */\n      dup4\n        /* \"#utility.yul\":2001:2007   */\n      dup2\n        /* \"#utility.yul\":1994:2012   */\n      mstore\n        /* \"#utility.yul\":2055:2058   */\n      dup7\n        /* \"#utility.yul\":2048:2052   */\n      0x20\n        /* \"#utility.yul\":2043:2045   */\n      dup6\n        /* \"#utility.yul\":2035:2041   */\n      dup9\n        /* \"#utility.yul\":2031:2046   */\n      add\n        /* \"#utility.yul\":2027:2053   */\n      add\n        /* \"#utility.yul\":2024:2059   */\n      gt\n        /* \"#utility.yul\":2021:2076   */\n      iszero\n      tag_97\n      jumpi\n        /* \"#utility.yul\":2072:2073   */\n      0x00\n        /* \"#utility.yul\":2069:2070   */\n      dup1\n        /* \"#utility.yul\":2062:2074   */\n      revert\n        /* \"#utility.yul\":2021:2076   */\n    tag_97:\n        /* \"#utility.yul\":2136:2138   */\n      dup4\n        /* \"#utility.yul\":2129:2133   */\n      0x20\n        /* \"#utility.yul\":2121:2127   */\n      dup8\n        /* \"#utility.yul\":2117:2134   */\n      add\n        /* \"#utility.yul\":2110:2114   */\n      0x20\n        /* \"#utility.yul\":2102:2108   */\n      dup4\n        /* \"#utility.yul\":2098:2115   */\n      add\n        /* \"#utility.yul\":2085:2139   */\n      calldatacopy\n        /* \"#utility.yul\":2183:2184   */\n      0x00\n        /* \"#utility.yul\":2176:2180   */\n      0x20\n        /* \"#utility.yul\":2171:2173   */\n      dup6\n        /* \"#utility.yul\":2163:2169   */\n      dup4\n        /* \"#utility.yul\":2159:2174   */\n      add\n        /* \"#utility.yul\":2155:2181   */\n      add\n        /* \"#utility.yul\":2148:2185   */\n      mstore\n        /* \"#utility.yul\":2203:2209   */\n      dup1\n        /* \"#utility.yul\":2194:2209   */\n      swap5\n      pop\n      pop\n      pop\n      pop\n      pop\n        /* \"#utility.yul\":1496:2215   */\n      swap3\n      swap2\n      pop\n      pop\n      jump\t// out\n        /* \"#utility.yul\":2220:2703   */\n    tag_16:\n        /* \"#utility.yul\":2295:2301   */\n      0x00\n        /* \"#utility.yul\":2303:2309   */\n      dup1\n        /* \"#utility.yul\":2356:2358   */\n      0x40\n        /* \"#utility.yul\":2344:2353   */\n      dup4\n        /* \"#utility.yul\":2335:2342   */\n      dup6\n        /* \"#utility.yul\":2331:2354   */\n      sub\n        /* \"#utility.yul\":2327:2359   */\n      slt\n        /* \"#utility.yul\":2324:2376   */\n      iszero\n      tag_99\n      jumpi\n        /* \"#utility.yul\":2372:2373   */\n      0x00\n        /* \"#utility.yul\":2369:2370   */\n      dup1\n        /* \"#utility.yul\":2362:2374   */\n      revert\n        /* \"#utility.yul\":2324:2376   */\n    tag_99:\n        /* \"#utility.yul\":2412:2421   */\n      dup3\n        /* \"#utility.yul\":2399:2422   */\n      calldataload\n        /* \"#utility.yul\":2445:2463   */\n      0xffffffffffffffff\n        /* \"#utility.yul\":2437:2443   */\n      dup2\n        /* \"#utility.yul\":2434:2464   */\n      gt\n        /* \"#utility.yul\":2431:2481   */\n      iszero\n      tag_100\n      jumpi\n        /* \"#utility.yul\":2477:2478   */\n      0x00\n        /* \"#utility.yul\":2474:2475   */\n      dup1\n        /* \"#utility.yul\":2467:2479   */\n      revert\n        /* \"#utility.yul\":2431:2481   */\n    tag_100:\n        /* \"#utility.yul\":2500:2550   */\n      tag_101\n        /* \"#utility.yul\":2542:2549   */\n      dup6\n        /* \"#utility.yul\":2533:2539   */\n      dup3\n        /* \"#utility.yul\":2522:2531   */\n      dup7\n        /* \"#utility.yul\":2518:2540   */\n      add\n        /* \"#utility.yul\":2500:2550   */\n      tag_73\n      jump\t// in\n    tag_101:\n        /* \"#utility.yul\":2490:2550   */\n      swap3\n      pop\n      pop\n        /* \"#utility.yul\":2600:2602   */\n      0x20\n        /* \"#utility.yul\":2589:2598   */\n      dup4\n        /* \"#utility.yul\":2585:2603   */\n      add\n        /* \"#utility.yul\":2572:2604   */\n      calldataload\n        /* \"#utility.yul\":2647:2652   */\n      dup1\n        /* \"#utility.yul\":2640:2653   */\n      iszero\n        /* \"#utility.yul\":2633:2654   */\n      iszero\n        /* \"#utility.yul\":2626:2631   */\n      dup2\n        /* \"#utility.yul\":2623:2655   */\n      eq\n        /* \"#utility.yul\":2613:2673   */\n      tag_102\n      jumpi\n        /* \"#utility.yul\":2669:2670   */\n      0x00\n        /* \"#utility.yul\":2666:2667   */\n      dup1\n        /* \"#utility.yul\":2659:2671   */\n      revert\n        /* \"#utility.yul\":2613:2673   */\n    tag_102:\n        /* \"#utility.yul\":2692:2697   */\n      dup1\n        /* \"#utility.yul\":2682:2697   */\n      swap2\n      pop\n      pop\n        /* \"#utility.yul\":2220:2703   */\n      swap3\n      pop\n      swap3\n      swap1\n      pop\n      jump\t// out\n        /* \"#utility.yul\":2708:3451   */\n    tag_20:\n        /* \"#utility.yul\":2815:2821   */\n      0x00\n        /* \"#utility.yul\":2823:2829   */\n      dup1\n        /* \"#utility.yul\":2831:2837   */\n      0x00\n        /* \"#utility.yul\":2884:2886   */\n      0x60\n        /* \"#utility.yul\":2872:2881   */\n      dup5\n        /* \"#utility.yul\":2863:2870   */\n      dup7\n        /* \"#utility.yul\":2859:2882   */\n      sub\n        /* \"#utility.yul\":2855:2887   */\n      slt\n        /* \"#utility.yul\":2852:2904   */\n      iszero\n      tag_104\n      jumpi\n        /* \"#utility.yul\":2900:2901   */\n      0x00\n        /* \"#utility.yul\":2897:2898   */\n      dup1\n        /* \"#utility.yul\":2890:2902   */\n      revert\n        /* \"#utility.yul\":2852:2904   */\n    tag_104:\n        /* \"#utility.yul\":2940:2949   */\n      dup4\n        /* \"#utility.yul\":2927:2950   */\n      calldataload\n        /* \"#utility.yul\":2969:2987   */\n      0xffffffffffffffff\n        /* \"#utility.yul\":3010:3012   */\n      dup1\n        /* \"#utility.yul\":3002:3008   */\n      dup3\n        /* \"#utility.yul\":2999:3013   */\n      gt\n        /* \"#utility.yul\":2996:3030   */\n      iszero\n      tag_105\n      jumpi\n        /* \"#utility.yul\":3026:3027   */\n      0x00\n        /* \"#utility.yul\":3023:3024   */\n      dup1\n        /* \"#utility.yul\":3016:3028   */\n      revert\n        /* \"#utility.yul\":2996:3030   */\n    tag_105:\n        /* \"#utility.yul\":3049:3099   */\n      tag_106\n        /* \"#utility.yul\":3091:3098   */\n      dup8\n        /* \"#utility.yul\":3082:3088   */\n      dup4\n        /* \"#utility.yul\":3071:3080   */\n      dup9\n        /* \"#utility.yul\":3067:3089   */\n      add\n        /* \"#utility.yul\":3049:3099   */\n      tag_73\n      jump\t// in\n    tag_106:\n        /* \"#utility.yul\":3039:3099   */\n      swap5\n      pop\n        /* \"#utility.yul\":3152:3154   */\n      0x20\n        /* \"#utility.yul\":3141:3150   */\n      dup7\n        /* \"#utility.yul\":3137:3155   */\n      add\n        /* \"#utility.yul\":3124:3156   */\n      calldataload\n        /* \"#utility.yul\":3108:3156   */\n      swap2\n      pop\n        /* \"#utility.yul\":3181:3183   */\n      dup1\n        /* \"#utility.yul\":3171:3179   */\n      dup3\n        /* \"#utility.yul\":3168:3184   */\n      gt\n        /* \"#utility.yul\":3165:3201   */\n      iszero\n      tag_107\n      jumpi\n        /* \"#utility.yul\":3197:3198   */\n      0x00\n        /* \"#utility.yul\":3194:3195   */\n      dup1\n        /* \"#utility.yul\":3187:3199   */\n      revert\n        /* \"#utility.yul\":3165:3201   */\n    tag_107:\n        /* \"#utility.yul\":3220:3272   */\n      tag_108\n        /* \"#utility.yul\":3264:3271   */\n      dup8\n        /* \"#utility.yul\":3253:3261   */\n      dup4\n        /* \"#utility.yul\":3242:3251   */\n      dup9\n        /* \"#utility.yul\":3238:3262   */\n      add\n        /* \"#utility.yul\":3220:3272   */\n      tag_73\n      jump\t// in\n    tag_108:\n        /* \"#utility.yul\":3210:3272   */\n      swap4\n      pop\n        /* \"#utility.yul\":3325:3327   */\n      0x40\n        /* \"#utility.yul\":3314:3323   */\n      dup7\n        /* \"#utility.yul\":3310:3328   */\n      add\n        /* \"#utility.yul\":3297:3329   */\n      calldataload\n        /* \"#utility.yul\":3281:3329   */\n      swap2\n      pop\n        /* \"#utility.yul\":3354:3356   */\n      dup1\n        /* \"#utility.yul\":3344:3352   */\n      dup3\n        /* \"#utility.yul\":3341:3357   */\n      gt\n        /* \"#utility.yul\":3338:3374   */\n      iszero\n      tag_109\n      jumpi\n        /* \"#utility.yul\":3370:3371   */\n      0x00\n        /* \"#utility.yul\":3367:3368   */\n      dup1\n        /* \"#utility.yul\":3360:3372   */\n      revert\n        /* \"#utility.yul\":3338:3374   */\n    tag_109:\n      pop\n        /* \"#utility.yul\":3393:3445   */\n      tag_110\n        /* \"#utility.yul\":3437:3444   */\n      dup7\n        /* \"#utility.yul\":3426:3434   */\n      dup3\n        /* \"#utility.yul\":3415:3424   */\n      dup8\n        /* \"#utility.yul\":3411:3435   */\n      add\n        /* \"#utility.yul\":3393:3445   */\n      tag_73\n      jump\t// in\n    tag_110:\n        /* \"#utility.yul\":3383:3445   */\n      swap2\n      pop\n      pop\n        /* \"#utility.yul\":2708:3451   */\n      swap3\n      pop\n      swap3\n      pop\n      swap3\n      jump\t// out\n        /* \"#utility.yul\":3648:3970   */\n    tag_29:\n        /* \"#utility.yul\":3717:3723   */\n      0x00\n        /* \"#utility.yul\":3770:3772   */\n      0x20\n        /* \"#utility.yul\":3758:3767   */\n      dup3\n        /* \"#utility.yul\":3749:3756   */\n      dup5\n        /* \"#utility.yul\":3745:3768   */\n      sub\n        /* \"#utility.yul\":3741:3773   */\n      slt\n        /* \"#utility.yul\":3738:3790   */\n      iszero\n      tag_113\n      jumpi\n        /* \"#utility.yul\":3786:3787   */\n      0x00\n        /* \"#utility.yul\":3783:3784   */\n      dup1\n        /* \"#utility.yul\":3776:3788   */\n      revert\n        /* \"#utility.yul\":3738:3790   */\n    tag_113:\n        /* \"#utility.yul\":3826:3835   */\n      dup2\n        /* \"#utility.yul\":3813:3836   */\n      calldataload\n        /* \"#utility.yul\":3859:3877   */\n      0xffffffffffffffff\n        /* \"#utility.yul\":3851:3857   */\n      dup2\n        /* \"#utility.yul\":3848:3878   */\n      gt\n        /* \"#utility.yul\":3845:3895   */\n      iszero\n      tag_114\n      jumpi\n        /* \"#utility.yul\":3891:3892   */\n      0x00\n        /* \"#utility.yul\":3888:3889   */\n      dup1\n        /* \"#utility.yul\":3881:3893   */\n      revert\n        /* \"#utility.yul\":3845:3895   */\n    tag_114:\n        /* \"#utility.yul\":3914:3964   */\n      tag_115\n        /* \"#utility.yul\":3956:3963   */\n      dup5\n        /* \"#utility.yul\":3947:3953   */\n      dup3\n        /* \"#utility.yul\":3936:3945   */\n      dup6\n        /* \"#utility.yul\":3932:3954   */\n      add\n        /* \"#utility.yul\":3914:3964   */\n      tag_73\n      jump\t// in\n    tag_115:\n        /* \"#utility.yul\":3904:3964   */\n      swap5\n        /* \"#utility.yul\":3648:3970   */\n      swap4\n      pop\n      pop\n      pop\n      pop\n      jump\t// out\n        /* \"#utility.yul\":3975:4355   */\n    tag_33:\n        /* \"#utility.yul\":4054:4055   */\n      0x01\n        /* \"#utility.yul\":4050:4062   */\n      dup2\n      dup2\n      shr\n      swap1\n        /* \"#utility.yul\":4097:4109   */\n      dup3\n      and\n      dup1\n        /* \"#utility.yul\":4118:4179   */\n      tag_117\n      jumpi\n        /* \"#utility.yul\":4172:4176   */\n      0x7f\n        /* \"#utility.yul\":4164:4170   */\n      dup3\n        /* \"#utility.yul\":4160:4177   */\n      and\n        /* \"#utility.yul\":4150:4177   */\n      swap2\n      pop\n        /* \"#utility.yul\":4118:4179   */\n    tag_117:\n        /* \"#utility.yul\":4225:4227   */\n      0x20\n        /* \"#utility.yul\":4217:4223   */\n      dup3\n        /* \"#utility.yul\":4214:4228   */\n      lt\n        /* \"#utility.yul\":4194:4212   */\n      dup2\n        /* \"#utility.yul\":4191:4229   */\n      sub\n        /* \"#utility.yul\":4188:4349   */\n      tag_118\n      jumpi\n        /* \"#utility.yul\":4271:4281   */\n      0x4e487b71\n        /* \"#utility.yul\":4266:4269   */\n      0xe0\n        /* \"#utility.yul\":4262:4282   */\n      shl\n        /* \"#utility.yul\":4259:4260   */\n      0x00\n        /* \"#utility.yul\":4252:4283   */\n      mstore\n        /* \"#utility.yul\":4306:4310   */\n      0x22\n        /* \"#utility.yul\":4303:4304   */\n      0x04\n        /* \"#utility.yul\":4296:4311   */\n      mstore\n        /* \"#utility.yul\":4334:4338   */\n      0x24\n        /* \"#utility.yul\":4331:4332   */\n      0x00\n        /* \"#utility.yul\":4324:4339   */\n      revert\n        /* \"#utility.yul\":4188:4349   */\n    tag_118:\n      pop\n        /* \"#utility.yul\":3975:4355   */\n      swap2\n      swap1\n      pop\n      jump\t// out\n        /* \"#utility.yul\":4360:4649   */\n    tag_50:\n        /* \"#utility.yul\":4491:4494   */\n      0x00\n        /* \"#utility.yul\":4529:4535   */\n      dup3\n        /* \"#utility.yul\":4523:4536   */\n      mload\n        /* \"#utility.yul\":4545:4611   */\n      tag_120\n        /* \"#utility.yul\":4604:4610   */\n      dup2\n        /* \"#utility.yul\":4599:4602   */\n      dup5\n        /* \"#utility.yul\":4592:4596   */\n      0x20\n        /* \"#utility.yul\":4584:4590   */\n      dup8\n        /* \"#utility.yul\":4580:4597   */\n      add\n        /* \"#utility.yul\":4545:4611   */\n      tag_70\n      jump\t// in\n    tag_120:\n        /* \"#utility.yul\":4627:4643   */\n      swap2\n      swap1\n      swap2\n      add\n      swap3\n        /* \"#utility.yul\":4360:4649   */\n      swap2\n      pop\n      pop\n      jump\t// out\n        /* \"#utility.yul\":5008:5309   */\n    tag_55:\n        /* \"#utility.yul\":5179:5181   */\n      0x40\n        /* \"#utility.yul\":5168:5177   */\n      dup2\n        /* \"#utility.yul\":5161:5182   */\n      mstore\n        /* \"#utility.yul\":5142:5146   */\n      0x00\n        /* \"#utility.yul\":5199:5244   */\n      tag_123\n        /* \"#utility.yul\":5240:5242   */\n      0x40\n        /* \"#utility.yul\":5229:5238   */\n      dup4\n        /* \"#utility.yul\":5225:5243   */\n      add\n        /* \"#utility.yul\":5217:5223   */\n      dup6\n        /* \"#utility.yul\":5199:5244   */\n      tag_71\n      jump\t// in\n    tag_123:\n        /* \"#utility.yul\":5191:5244   */\n      swap1\n      pop\n        /* \"#utility.yul\":5294:5300   */\n      dup3\n        /* \"#utility.yul\":5287:5301   */\n      iszero\n        /* \"#utility.yul\":5280:5302   */\n      iszero\n        /* \"#utility.yul\":5275:5277   */\n      0x20\n        /* \"#utility.yul\":5264:5273   */\n      dup4\n        /* \"#utility.yul\":5260:5278   */\n      add\n        /* \"#utility.yul\":5253:5303   */\n      mstore\n        /* \"#utility.yul\":5008:5309   */\n      swap4\n      swap3\n      pop\n      pop\n      pop\n      jump\t// out\n        /* \"#utility.yul\":5793:6338   */\n    tag_75:\n        /* \"#utility.yul\":5895:5897   */\n      0x1f\n        /* \"#utility.yul\":5890:5893   */\n      dup3\n        /* \"#utility.yul\":5887:5898   */\n      gt\n        /* \"#utility.yul\":5884:6332   */\n      iszero\n      tag_127\n      jumpi\n        /* \"#utility.yul\":5931:5932   */\n      0x00\n        /* \"#utility.yul\":5956:5961   */\n      dup2\n        /* \"#utility.yul\":5952:5954   */\n      dup2\n        /* \"#utility.yul\":5945:5962   */\n      mstore\n        /* \"#utility.yul\":6001:6005   */\n      0x20\n        /* \"#utility.yul\":5997:5999   */\n      dup2\n        /* \"#utility.yul\":5987:6006   */\n      keccak256\n        /* \"#utility.yul\":6071:6073   */\n      0x1f\n        /* \"#utility.yul\":6059:6069   */\n      dup6\n        /* \"#utility.yul\":6055:6074   */\n      add\n        /* \"#utility.yul\":6052:6053   */\n      0x05\n        /* \"#utility.yul\":6048:6075   */\n      shr\n        /* \"#utility.yul\":6042:6046   */\n      dup2\n        /* \"#utility.yul\":6038:6076   */\n      add\n        /* \"#utility.yul\":6107:6111   */\n      0x20\n        /* \"#utility.yul\":6095:6105   */\n      dup7\n        /* \"#utility.yul\":6092:6112   */\n      lt\n        /* \"#utility.yul\":6089:6136   */\n      iszero\n      tag_128\n      jumpi\n      pop\n        /* \"#utility.yul\":6130:6134   */\n      dup1\n        /* \"#utility.yul\":6089:6136   */\n    tag_128:\n        /* \"#utility.yul\":6185:6187   */\n      0x1f\n        /* \"#utility.yul\":6180:6183   */\n      dup6\n        /* \"#utility.yul\":6176:6188   */\n      add\n        /* \"#utility.yul\":6173:6174   */\n      0x05\n        /* \"#utility.yul\":6169:6189   */\n      shr\n        /* \"#utility.yul\":6163:6167   */\n      dup3\n        /* \"#utility.yul\":6159:6190   */\n      add\n        /* \"#utility.yul\":6149:6190   */\n      swap2\n      pop\n        /* \"#utility.yul\":6240:6322   */\n    tag_129:\n        /* \"#utility.yul\":6258:6260   */\n      dup2\n        /* \"#utility.yul\":6251:6256   */\n      dup2\n        /* \"#utility.yul\":6248:6261   */\n      lt\n        /* \"#utility.yul\":6240:6322   */\n      iszero\n      tag_131\n      jumpi\n        /* \"#utility.yul\":6303:6320   */\n      dup3\n      dup2\n      sstore\n        /* \"#utility.yul\":6284:6285   */\n      0x01\n        /* \"#utility.yul\":6273:6286   */\n      add\n        /* \"#utility.yul\":6240:6322   */\n      jump(tag_129)\n    tag_131:\n        /* \"#utility.yul\":6244:6247   */\n      pop\n      pop\n      pop\n        /* \"#utility.yul\":5884:6332   */\n    tag_127:\n        /* \"#utility.yul\":5793:6338   */\n      pop\n      pop\n      pop\n      jump\t// out\n        /* \"#utility.yul\":6514:7866   */\n    tag_62:\n        /* \"#utility.yul\":6640:6643   */\n      dup2\n        /* \"#utility.yul\":6634:6644   */\n      mload\n        /* \"#utility.yul\":6667:6685   */\n      0xffffffffffffffff\n        /* \"#utility.yul\":6659:6665   */\n      dup2\n        /* \"#utility.yul\":6656:6686   */\n      gt\n        /* \"#utility.yul\":6653:6709   */\n      iszero\n      tag_135\n      jumpi\n        /* \"#utility.yul\":6689:6707   */\n      tag_135\n      tag_72\n      jump\t// in\n    tag_135:\n        /* \"#utility.yul\":6718:6815   */\n      tag_136\n        /* \"#utility.yul\":6808:6814   */\n      dup2\n        /* \"#utility.yul\":6768:6806   */\n      tag_137\n        /* \"#utility.yul\":6800:6804   */\n      dup5\n        /* \"#utility.yul\":6794:6805   */\n      sload\n        /* \"#utility.yul\":6768:6806   */\n      tag_33\n      jump\t// in\n    tag_137:\n        /* \"#utility.yul\":6762:6766   */\n      dup5\n        /* \"#utility.yul\":6718:6815   */\n      tag_75\n      jump\t// in\n    tag_136:\n        /* \"#utility.yul\":6870:6874   */\n      0x20\n      dup1\n        /* \"#utility.yul\":6934:6936   */\n      0x1f\n        /* \"#utility.yul\":6923:6937   */\n      dup4\n      gt\n        /* \"#utility.yul\":6951:6952   */\n      0x01\n        /* \"#utility.yul\":6946:7609   */\n      dup2\n      eq\n      tag_139\n      jumpi\n        /* \"#utility.yul\":7653:7654   */\n      0x00\n        /* \"#utility.yul\":7670:7676   */\n      dup5\n        /* \"#utility.yul\":7667:7756   */\n      iszero\n      tag_140\n      jumpi\n      pop\n        /* \"#utility.yul\":7722:7741   */\n      dup6\n      dup4\n      add\n        /* \"#utility.yul\":7716:7742   */\n      mload\n        /* \"#utility.yul\":7667:7756   */\n    tag_140:\n      not(0x00)\n        /* \"#utility.yul\":6471:6472   */\n      0x03\n        /* \"#utility.yul\":6467:6478   */\n      dup7\n      swap1\n      shl\n        /* \"#utility.yul\":6463:6487   */\n      shr\n        /* \"#utility.yul\":6459:6488   */\n      not\n        /* \"#utility.yul\":6449:6489   */\n      and\n        /* \"#utility.yul\":6495:6496   */\n      0x01\n        /* \"#utility.yul\":6491:6502   */\n      dup6\n      swap1\n      shl\n        /* \"#utility.yul\":6446:6503   */\n      or\n        /* \"#utility.yul\":7769:7850   */\n      dup6\n      sstore\n        /* \"#utility.yul\":6916:7860   */\n      jump(tag_131)\n        /* \"#utility.yul\":6946:7609   */\n    tag_139:\n        /* \"#utility.yul\":5740:5741   */\n      0x00\n        /* \"#utility.yul\":5733:5747   */\n      dup6\n      dup2\n      mstore\n        /* \"#utility.yul\":5777:5781   */\n      0x20\n        /* \"#utility.yul\":5764:5782   */\n      dup2\n      keccak256\n      not(0x1f)\n        /* \"#utility.yul\":6982:7002   */\n      dup7\n      and\n      swap2\n        /* \"#utility.yul\":7100:7336   */\n    tag_143:\n        /* \"#utility.yul\":7114:7121   */\n      dup3\n        /* \"#utility.yul\":7111:7112   */\n      dup2\n        /* \"#utility.yul\":7108:7122   */\n      lt\n        /* \"#utility.yul\":7100:7336   */\n      iszero\n      tag_145\n      jumpi\n        /* \"#utility.yul\":7203:7222   */\n      dup9\n      dup7\n      add\n        /* \"#utility.yul\":7197:7223   */\n      mload\n        /* \"#utility.yul\":7182:7224   */\n      dup3\n      sstore\n        /* \"#utility.yul\":7295:7322   */\n      swap5\n      dup5\n      add\n      swap5\n        /* \"#utility.yul\":7263:7264   */\n      0x01\n        /* \"#utility.yul\":7251:7265   */\n      swap1\n      swap2\n      add\n      swap1\n        /* \"#utility.yul\":7130:7149   */\n      dup5\n      add\n        /* \"#utility.yul\":7100:7336   */\n      jump(tag_143)\n    tag_145:\n        /* \"#utility.yul\":7104:7107   */\n      pop\n        /* \"#utility.yul\":7364:7370   */\n      dup6\n        /* \"#utility.yul\":7355:7362   */\n      dup3\n        /* \"#utility.yul\":7352:7371   */\n      lt\n        /* \"#utility.yul\":7349:7550   */\n      iszero\n      tag_146\n      jumpi\n        /* \"#utility.yul\":7425:7444   */\n      dup8\n      dup6\n      add\n        /* \"#utility.yul\":7419:7445   */\n      mload\n      not(0x00)\n        /* \"#utility.yul\":7508:7509   */\n      0x03\n        /* \"#utility.yul\":7504:7518   */\n      dup9\n      swap1\n      shl\n        /* \"#utility.yul\":7520:7523   */\n      0xf8\n        /* \"#utility.yul\":7500:7524   */\n      and\n        /* \"#utility.yul\":7496:7533   */\n      shr\n        /* \"#utility.yul\":7492:7534   */\n      not\n        /* \"#utility.yul\":7477:7535   */\n      and\n        /* \"#utility.yul\":7462:7536   */\n      dup2\n      sstore\n        /* \"#utility.yul\":7349:7550   */\n    tag_146:\n      pop\n      pop\n      pop\n      pop\n      pop\n        /* \"#utility.yul\":7596:7597   */\n      0x01\n        /* \"#utility.yul\":7580:7594   */\n      swap1\n      dup2\n      shl\n        /* \"#utility.yul\":7576:7598   */\n      add\n        /* \"#utility.yul\":7563:7599   */\n      swap1\n      sstore\n      pop\n        /* \"#utility.yul\":6514:7866   */\n      jump\t// out\n        /* \"#utility.yul\":7871:8254   */\n    tag_66:\n        /* \"#utility.yul\":8068:8070   */\n      0x40\n        /* \"#utility.yul\":8057:8066   */\n      dup2\n        /* \"#utility.yul\":8050:8071   */\n      mstore\n        /* \"#utility.yul\":8031:8035   */\n      0x00\n        /* \"#utility.yul\":8094:8139   */\n      tag_148\n        /* \"#utility.yul\":8135:8137   */\n      0x40\n        /* \"#utility.yul\":8124:8133   */\n      dup4\n        /* \"#utility.yul\":8120:8138   */\n      add\n        /* \"#utility.yul\":8112:8118   */\n      dup6\n        /* \"#utility.yul\":8094:8139   */\n      tag_71\n      jump\t// in\n    tag_148:\n        /* \"#utility.yul\":8187:8196   */\n      dup3\n        /* \"#utility.yul\":8179:8185   */\n      dup2\n        /* \"#utility.yul\":8175:8197   */\n      sub\n        /* \"#utility.yul\":8170:8172   */\n      0x20\n        /* \"#utility.yul\":8159:8168   */\n      dup5\n        /* \"#utility.yul\":8155:8173   */\n      add\n        /* \"#utility.yul\":8148:8198   */\n      mstore\n        /* \"#utility.yul\":8215:8248   */\n      tag_149\n        /* \"#utility.yul\":8241:8247   */\n      dup2\n        /* \"#utility.yul\":8233:8239   */\n      dup6\n        /* \"#utility.yul\":8215:8248   */\n      tag_71\n      jump\t// in\n    tag_149:\n        /* \"#utility.yul\":8207:8248   */\n      swap6\n        /* \"#utility.yul\":7871:8254   */\n      swap5\n      pop\n      pop\n      pop\n      pop\n      pop\n      jump\t// out\n\n    auxdata: 0xa2646970667358221220aafc3bb8e2e0ec8d7c45800aa4a627a06ecbaf51f6dbb72081aa8b1c16016fd564736f6c63430008140033\n}\n",
				"bytecode": {
					"linkReferences": {},
					"object": "608060405234801561001057600080fd5b506109f9806100206000396000f3fe608060405234801561001057600080fd5b50600436106100575760003560e01c806311b093801461005c578063219c870214610088578063481fceca1461009d57806365d9baa7146100b0578063f84cbd4d146100e3575b600080fd5b61006f61006a366004610597565b6100f6565b60405161007f9493929190610600565b60405180910390f35b61009b6100963660046106f0565b6102b9565b005b61009b6100ab366004610747565b6103b5565b6100d36100be366004610597565b60006020819052908152604090205460ff1681565b604051901515815260200161007f565b6100d36100f13660046107cf565b610531565b6001602052600090815260409020805481906101119061080c565b80601f016020809104026020016040519081016040528092919081815260200182805461013d9061080c565b801561018a5780601f1061015f5761010080835404028352916020019161018a565b820191906000526020600020905b81548152906001019060200180831161016d57829003601f168201915b50505050509080600101805461019f9061080c565b80601f01602080910402602001604051908101604052809291908181526020018280546101cb9061080c565b80156102185780601f106101ed57610100808354040283529160200191610218565b820191906000526020600020905b8154815290600101906020018083116101fb57829003601f168201915b50505050509080600201805461022d9061080c565b80601f01602080910402602001604051908101604052809291908181526020018280546102599061080c565b80156102a65780601f1061027b576101008083540402835291602001916102a6565b820191906000526020600020905b81548152906001019060200180831161028957829003601f168201915b5050506003909301549192505060ff1684565b6000826040516020016102cc9190610846565b60408051601f19818403018152918152815160209283012060008181529283905291205490915060ff16610366577f431ec5de6504bdcd6675c40ebdb70af1d383d6bf7d1e8cb58cce73993492e3c36040516103599060208082526019908201527f436572746966696361646f206e6f20656e636f6e747261646f00000000000000604082015260600190565b60405180910390a1505050565b60008181526001602052604090819020600301805460ff1916841515179055517fb2b3273e6a00776d5925f79dc9dde1574c39a021673d7a34039991cbb84c89b3906103599085908590610862565b6000836040516020016103c89190610846565b60408051601f19818403018152918152815160209283012060008181529283905291205490915060ff1615610464577f431ec5de6504bdcd6675c40ebdb70af1d383d6bf7d1e8cb58cce73993492e3c36040516104569060208082526018908201527f456c20636572746966696361646f207961206578697374650000000000000000604082015260600190565b60405180910390a150505050565b6040805160808101825285815260208082018690528183018590526001606083018190526000858152915291909120815181906104a190826108d5565b50602082015160018201906104b690826108d5565b50604082015160028201906104cb90826108d5565b50606091909101516003909101805491151560ff19928316179055600082815260208190526040908190208054909216600117909155517f42a3f7f7d5170c62660cf6c20adacd5846587724d84a500a1bf1988af28b9021906104569086908690610995565b600080826040516020016105459190610846565b60408051601f19818403018152918152815160209283012060008181529283905291205490915060ff1661057c5750600092915050565b60009081526001602052604090206003015460ff1692915050565b6000602082840312156105a957600080fd5b5035919050565b60005b838110156105cb5781810151838201526020016105b3565b50506000910152565b600081518084526105ec8160208601602086016105b0565b601f01601f19169290920160200192915050565b60808152600061061360808301876105d4565b828103602084015261062581876105d4565b9050828103604084015261063981866105d4565b915050821515606083015295945050505050565b634e487b7160e01b600052604160045260246000fd5b600082601f83011261067457600080fd5b813567ffffffffffffffff8082111561068f5761068f61064d565b604051601f8301601f19908116603f011681019082821181831017156106b7576106b761064d565b816040528381528660208588010111156106d057600080fd5b836020870160208301376000602085830101528094505050505092915050565b6000806040838503121561070357600080fd5b823567ffffffffffffffff81111561071a57600080fd5b61072685828601610663565b9250506020830135801515811461073c57600080fd5b809150509250929050565b60008060006060848603121561075c57600080fd5b833567ffffffffffffffff8082111561077457600080fd5b61078087838801610663565b9450602086013591508082111561079657600080fd5b6107a287838801610663565b935060408601359150808211156107b857600080fd5b506107c586828701610663565b9150509250925092565b6000602082840312156107e157600080fd5b813567ffffffffffffffff8111156107f857600080fd5b61080484828501610663565b949350505050565b600181811c9082168061082057607f821691505b60208210810361084057634e487b7160e01b600052602260045260246000fd5b50919050565b600082516108588184602087016105b0565b9190910192915050565b60408152600061087560408301856105d4565b905082151560208301529392505050565b601f8211156108d057600081815260208120601f850160051c810160208610156108ad5750805b601f850160051c820191505b818110156108cc578281556001016108b9565b5050505b505050565b815167ffffffffffffffff8111156108ef576108ef61064d565b610903816108fd845461080c565b84610886565b602080601f83116001811461093857600084156109205750858301515b600019600386901b1c1916600185901b1785556108cc565b600085815260208120601f198616915b8281101561096757888601518255948401946001909101908401610948565b50858210156109855787850151600019600388901b60f8161c191681555b5050505050600190811b01905550565b6040815260006109a860408301856105d4565b82810360208401526109ba81856105d4565b9594505050505056fea2646970667358221220aafc3bb8e2e0ec8d7c45800aa4a627a06ecbaf51f6dbb72081aa8b1c16016fd564736f6c63430008140033",
					"opcodes": "PUSH1 0x80 PUSH1 0x40 MSTORE CALLVALUE DUP1 ISZERO PUSH2 0x10 JUMPI PUSH1 0x0 DUP1 REVERT JUMPDEST POP PUSH2 0x9F9 DUP1 PUSH2 0x20 PUSH1 0x0 CODECOPY PUSH1 0x0 RETURN INVALID PUSH1 0x80 PUSH1 0x40 MSTORE CALLVALUE DUP1 ISZERO PUSH2 0x10 JUMPI PUSH1 0x0 DUP1 REVERT JUMPDEST POP PUSH1 0x4 CALLDATASIZE LT PUSH2 0x57 JUMPI PUSH1 0x0 CALLDATALOAD PUSH1 0xE0 SHR DUP1 PUSH4 0x11B09380 EQ PUSH2 0x5C JUMPI DUP1 PUSH4 0x219C8702 EQ PUSH2 0x88 JUMPI DUP1 PUSH4 0x481FCECA EQ PUSH2 0x9D JUMPI DUP1 PUSH4 0x65D9BAA7 EQ PUSH2 0xB0 JUMPI DUP1 PUSH4 0xF84CBD4D EQ PUSH2 0xE3 JUMPI JUMPDEST PUSH1 0x0 DUP1 REVERT JUMPDEST PUSH2 0x6F PUSH2 0x6A CALLDATASIZE PUSH1 0x4 PUSH2 0x597 JUMP JUMPDEST PUSH2 0xF6 JUMP JUMPDEST PUSH1 0x40 MLOAD PUSH2 0x7F SWAP5 SWAP4 SWAP3 SWAP2 SWAP1 PUSH2 0x600 JUMP JUMPDEST PUSH1 0x40 MLOAD DUP1 SWAP2 SUB SWAP1 RETURN JUMPDEST PUSH2 0x9B PUSH2 0x96 CALLDATASIZE PUSH1 0x4 PUSH2 0x6F0 JUMP JUMPDEST PUSH2 0x2B9 JUMP JUMPDEST STOP JUMPDEST PUSH2 0x9B PUSH2 0xAB CALLDATASIZE PUSH1 0x4 PUSH2 0x747 JUMP JUMPDEST PUSH2 0x3B5 JUMP JUMPDEST PUSH2 0xD3 PUSH2 0xBE CALLDATASIZE PUSH1 0x4 PUSH2 0x597 JUMP JUMPDEST PUSH1 0x0 PUSH1 0x20 DUP2 SWAP1 MSTORE SWAP1 DUP2 MSTORE PUSH1 0x40 SWAP1 KECCAK256 SLOAD PUSH1 0xFF AND DUP2 JUMP JUMPDEST PUSH1 0x40 MLOAD SWAP1 ISZERO ISZERO DUP2 MSTORE PUSH1 0x20 ADD PUSH2 0x7F JUMP JUMPDEST PUSH2 0xD3 PUSH2 0xF1 CALLDATASIZE PUSH1 0x4 PUSH2 0x7CF JUMP JUMPDEST PUSH2 0x531 JUMP JUMPDEST PUSH1 0x1 PUSH1 0x20 MSTORE PUSH1 0x0 SWAP1 DUP2 MSTORE PUSH1 0x40 SWAP1 KECCAK256 DUP1 SLOAD DUP2 SWAP1 PUSH2 0x111 SWAP1 PUSH2 0x80C JUMP JUMPDEST DUP1 PUSH1 0x1F ADD PUSH1 0x20 DUP1 SWAP2 DIV MUL PUSH1 0x20 ADD PUSH1 0x40 MLOAD SWAP1 DUP2 ADD PUSH1 0x40 MSTORE DUP1 SWAP3 SWAP2 SWAP1 DUP2 DUP2 MSTORE PUSH1 0x20 ADD DUP3 DUP1 SLOAD PUSH2 0x13D SWAP1 PUSH2 0x80C JUMP JUMPDEST DUP1 ISZERO PUSH2 0x18A JUMPI DUP1 PUSH1 0x1F LT PUSH2 0x15F JUMPI PUSH2 0x100 DUP1 DUP4 SLOAD DIV MUL DUP4 MSTORE SWAP2 PUSH1 0x20 ADD SWAP2 PUSH2 0x18A JUMP JUMPDEST DUP3 ADD SWAP2 SWAP1 PUSH1 0x0 MSTORE PUSH1 0x20 PUSH1 0x0 KECCAK256 SWAP1 JUMPDEST DUP2 SLOAD DUP2 MSTORE SWAP1 PUSH1 0x1 ADD SWAP1 PUSH1 0x20 ADD DUP1 DUP4 GT PUSH2 0x16D JUMPI DUP3 SWAP1 SUB PUSH1 0x1F AND DUP3 ADD SWAP2 JUMPDEST POP POP POP POP POP SWAP1 DUP1 PUSH1 0x1 ADD DUP1 SLOAD PUSH2 0x19F SWAP1 PUSH2 0x80C JUMP JUMPDEST DUP1 PUSH1 0x1F ADD PUSH1 0x20 DUP1 SWAP2 DIV MUL PUSH1 0x20 ADD PUSH1 0x40 MLOAD SWAP1 DUP2 ADD PUSH1 0x40 MSTORE DUP1 SWAP3 SWAP2 SWAP1 DUP2 DUP2 MSTORE PUSH1 0x20 ADD DUP3 DUP1 SLOAD PUSH2 0x1CB SWAP1 PUSH2 0x80C JUMP JUMPDEST DUP1 ISZERO PUSH2 0x218 JUMPI DUP1 PUSH1 0x1F LT PUSH2 0x1ED JUMPI PUSH2 0x100 DUP1 DUP4 SLOAD DIV MUL DUP4 MSTORE SWAP2 PUSH1 0x20 ADD SWAP2 PUSH2 0x218 JUMP JUMPDEST DUP3 ADD SWAP2 SWAP1 PUSH1 0x0 MSTORE PUSH1 0x20 PUSH1 0x0 KECCAK256 SWAP1 JUMPDEST DUP2 SLOAD DUP2 MSTORE SWAP1 PUSH1 0x1 ADD SWAP1 PUSH1 0x20 ADD DUP1 DUP4 GT PUSH2 0x1FB JUMPI DUP3 SWAP1 SUB PUSH1 0x1F AND DUP3 ADD SWAP2 JUMPDEST POP POP POP POP POP SWAP1 DUP1 PUSH1 0x2 ADD DUP1 SLOAD PUSH2 0x22D SWAP1 PUSH2 0x80C JUMP JUMPDEST DUP1 PUSH1 0x1F ADD PUSH1 0x20 DUP1 SWAP2 DIV MUL PUSH1 0x20 ADD PUSH1 0x40 MLOAD SWAP1 DUP2 ADD PUSH1 0x40 MSTORE DUP1 SWAP3 SWAP2 SWAP1 DUP2 DUP2 MSTORE PUSH1 0x20 ADD DUP3 DUP1 SLOAD PUSH2 0x259 SWAP1 PUSH2 0x80C JUMP JUMPDEST DUP1 ISZERO PUSH2 0x2A6 JUMPI DUP1 PUSH1 0x1F LT PUSH2 0x27B JUMPI PUSH2 0x100 DUP1 DUP4 SLOAD DIV MUL DUP4 MSTORE SWAP2 PUSH1 0x20 ADD SWAP2 PUSH2 0x2A6 JUMP JUMPDEST DUP3 ADD SWAP2 SWAP1 PUSH1 0x0 MSTORE PUSH1 0x20 PUSH1 0x0 KECCAK256 SWAP1 JUMPDEST DUP2 SLOAD DUP2 MSTORE SWAP1 PUSH1 0x1 ADD SWAP1 PUSH1 0x20 ADD DUP1 DUP4 GT PUSH2 0x289 JUMPI DUP3 SWAP1 SUB PUSH1 0x1F AND DUP3 ADD SWAP2 JUMPDEST POP POP POP PUSH1 0x3 SWAP1 SWAP4 ADD SLOAD SWAP2 SWAP3 POP POP PUSH1 0xFF AND DUP5 JUMP JUMPDEST PUSH1 0x0 DUP3 PUSH1 0x40 MLOAD PUSH1 0x20 ADD PUSH2 0x2CC SWAP2 SWAP1 PUSH2 0x846 JUMP JUMPDEST PUSH1 0x40 DUP1 MLOAD PUSH1 0x1F NOT DUP2 DUP5 SUB ADD DUP2 MSTORE SWAP2 DUP2 MSTORE DUP2 MLOAD PUSH1 0x20 SWAP3 DUP4 ADD KECCAK256 PUSH1 0x0 DUP2 DUP2 MSTORE SWAP3 DUP4 SWAP1 MSTORE SWAP2 KECCAK256 SLOAD SWAP1 SWAP2 POP PUSH1 0xFF AND PUSH2 0x366 JUMPI PUSH32 0x431EC5DE6504BDCD6675C40EBDB70AF1D383D6BF7D1E8CB58CCE73993492E3C3 PUSH1 0x40 MLOAD PUSH2 0x359 SWAP1 PUSH1 0x20 DUP1 DUP3 MSTORE PUSH1 0x19 SWAP1 DUP3 ADD MSTORE PUSH32 0x436572746966696361646F206E6F20656E636F6E747261646F00000000000000 PUSH1 0x40 DUP3 ADD MSTORE PUSH1 0x60 ADD SWAP1 JUMP JUMPDEST PUSH1 0x40 MLOAD DUP1 SWAP2 SUB SWAP1 LOG1 POP POP POP JUMP JUMPDEST PUSH1 0x0 DUP2 DUP2 MSTORE PUSH1 0x1 PUSH1 0x20 MSTORE PUSH1 0x40 SWAP1 DUP2 SWAP1 KECCAK256 PUSH1 0x3 ADD DUP1 SLOAD PUSH1 0xFF NOT AND DUP5 ISZERO ISZERO OR SWAP1 SSTORE MLOAD PUSH32 0xB2B3273E6A00776D5925F79DC9DDE1574C39A021673D7A34039991CBB84C89B3 SWAP1 PUSH2 0x359 SWAP1 DUP6 SWAP1 DUP6 SWAP1 PUSH2 0x862 JUMP JUMPDEST PUSH1 0x0 DUP4 PUSH1 0x40 MLOAD PUSH1 0x20 ADD PUSH2 0x3C8 SWAP2 SWAP1 PUSH2 0x846 JUMP JUMPDEST PUSH1 0x40 DUP1 MLOAD PUSH1 0x1F NOT DUP2 DUP5 SUB ADD DUP2 MSTORE SWAP2 DUP2 MSTORE DUP2 MLOAD PUSH1 0x20 SWAP3 DUP4 ADD KECCAK256 PUSH1 0x0 DUP2 DUP2 MSTORE SWAP3 DUP4 SWAP1 MSTORE SWAP2 KECCAK256 SLOAD SWAP1 SWAP2 POP PUSH1 0xFF AND ISZERO PUSH2 0x464 JUMPI PUSH32 0x431EC5DE6504BDCD6675C40EBDB70AF1D383D6BF7D1E8CB58CCE73993492E3C3 PUSH1 0x40 MLOAD PUSH2 0x456 SWAP1 PUSH1 0x20 DUP1 DUP3 MSTORE PUSH1 0x18 SWAP1 DUP3 ADD MSTORE PUSH32 0x456C20636572746966696361646F207961206578697374650000000000000000 PUSH1 0x40 DUP3 ADD MSTORE PUSH1 0x60 ADD SWAP1 JUMP JUMPDEST PUSH1 0x40 MLOAD DUP1 SWAP2 SUB SWAP1 LOG1 POP POP POP POP JUMP JUMPDEST PUSH1 0x40 DUP1 MLOAD PUSH1 0x80 DUP2 ADD DUP3 MSTORE DUP6 DUP2 MSTORE PUSH1 0x20 DUP1 DUP3 ADD DUP7 SWAP1 MSTORE DUP2 DUP4 ADD DUP6 SWAP1 MSTORE PUSH1 0x1 PUSH1 0x60 DUP4 ADD DUP2 SWAP1 MSTORE PUSH1 0x0 DUP6 DUP2 MSTORE SWAP2 MSTORE SWAP2 SWAP1 SWAP2 KECCAK256 DUP2 MLOAD DUP2 SWAP1 PUSH2 0x4A1 SWAP1 DUP3 PUSH2 0x8D5 JUMP JUMPDEST POP PUSH1 0x20 DUP3 ADD MLOAD PUSH1 0x1 DUP3 ADD SWAP1 PUSH2 0x4B6 SWAP1 DUP3 PUSH2 0x8D5 JUMP JUMPDEST POP PUSH1 0x40 DUP3 ADD MLOAD PUSH1 0x2 DUP3 ADD SWAP1 PUSH2 0x4CB SWAP1 DUP3 PUSH2 0x8D5 JUMP JUMPDEST POP PUSH1 0x60 SWAP2 SWAP1 SWAP2 ADD MLOAD PUSH1 0x3 SWAP1 SWAP2 ADD DUP1 SLOAD SWAP2 ISZERO ISZERO PUSH1 0xFF NOT SWAP3 DUP4 AND OR SWAP1 SSTORE PUSH1 0x0 DUP3 DUP2 MSTORE PUSH1 0x20 DUP2 SWAP1 MSTORE PUSH1 0x40 SWAP1 DUP2 SWAP1 KECCAK256 DUP1 SLOAD SWAP1 SWAP3 AND PUSH1 0x1 OR SWAP1 SWAP2 SSTORE MLOAD PUSH32 0x42A3F7F7D5170C62660CF6C20ADACD5846587724D84A500A1BF1988AF28B9021 SWAP1 PUSH2 0x456 SWAP1 DUP7 SWAP1 DUP7 SWAP1 PUSH2 0x995 JUMP JUMPDEST PUSH1 0x0 DUP1 DUP3 PUSH1 0x40 MLOAD PUSH1 0x20 ADD PUSH2 0x545 SWAP2 SWAP1 PUSH2 0x846 JUMP JUMPDEST PUSH1 0x40 DUP1 MLOAD PUSH1 0x1F NOT DUP2 DUP5 SUB ADD DUP2 MSTORE SWAP2 DUP2 MSTORE DUP2 MLOAD PUSH1 0x20 SWAP3 DUP4 ADD KECCAK256 PUSH1 0x0 DUP2 DUP2 MSTORE SWAP3 DUP4 SWAP1 MSTORE SWAP2 KECCAK256 SLOAD SWAP1 SWAP2 POP PUSH1 0xFF AND PUSH2 0x57C JUMPI POP PUSH1 0x0 SWAP3 SWAP2 POP POP JUMP JUMPDEST PUSH1 0x0 SWAP1 DUP2 MSTORE PUSH1 0x1 PUSH1 0x20 MSTORE PUSH1 0x40 SWAP1 KECCAK256 PUSH1 0x3 ADD SLOAD PUSH1 0xFF AND SWAP3 SWAP2 POP POP JUMP JUMPDEST PUSH1 0x0 PUSH1 0x20 DUP3 DUP5 SUB SLT ISZERO PUSH2 0x5A9 JUMPI PUSH1 0x0 DUP1 REVERT JUMPDEST POP CALLDATALOAD SWAP2 SWAP1 POP JUMP JUMPDEST PUSH1 0x0 JUMPDEST DUP4 DUP2 LT ISZERO PUSH2 0x5CB JUMPI DUP2 DUP2 ADD MLOAD DUP4 DUP3 ADD MSTORE PUSH1 0x20 ADD PUSH2 0x5B3 JUMP JUMPDEST POP POP PUSH1 0x0 SWAP2 ADD MSTORE JUMP JUMPDEST PUSH1 0x0 DUP2 MLOAD DUP1 DUP5 MSTORE PUSH2 0x5EC DUP2 PUSH1 0x20 DUP7 ADD PUSH1 0x20 DUP7 ADD PUSH2 0x5B0 JUMP JUMPDEST PUSH1 0x1F ADD PUSH1 0x1F NOT AND SWAP3 SWAP1 SWAP3 ADD PUSH1 0x20 ADD SWAP3 SWAP2 POP POP JUMP JUMPDEST PUSH1 0x80 DUP2 MSTORE PUSH1 0x0 PUSH2 0x613 PUSH1 0x80 DUP4 ADD DUP8 PUSH2 0x5D4 JUMP JUMPDEST DUP3 DUP2 SUB PUSH1 0x20 DUP5 ADD MSTORE PUSH2 0x625 DUP2 DUP8 PUSH2 0x5D4 JUMP JUMPDEST SWAP1 POP DUP3 DUP2 SUB PUSH1 0x40 DUP5 ADD MSTORE PUSH2 0x639 DUP2 DUP7 PUSH2 0x5D4 JUMP JUMPDEST SWAP2 POP POP DUP3 ISZERO ISZERO PUSH1 0x60 DUP4 ADD MSTORE SWAP6 SWAP5 POP POP POP POP POP JUMP JUMPDEST PUSH4 0x4E487B71 PUSH1 0xE0 SHL PUSH1 0x0 MSTORE PUSH1 0x41 PUSH1 0x4 MSTORE PUSH1 0x24 PUSH1 0x0 REVERT JUMPDEST PUSH1 0x0 DUP3 PUSH1 0x1F DUP4 ADD SLT PUSH2 0x674 JUMPI PUSH1 0x0 DUP1 REVERT JUMPDEST DUP2 CALLDATALOAD PUSH8 0xFFFFFFFFFFFFFFFF DUP1 DUP3 GT ISZERO PUSH2 0x68F JUMPI PUSH2 0x68F PUSH2 0x64D JUMP JUMPDEST PUSH1 0x40 MLOAD PUSH1 0x1F DUP4 ADD PUSH1 0x1F NOT SWAP1 DUP2 AND PUSH1 0x3F ADD AND DUP2 ADD SWAP1 DUP3 DUP3 GT DUP2 DUP4 LT OR ISZERO PUSH2 0x6B7 JUMPI PUSH2 0x6B7 PUSH2 0x64D JUMP JUMPDEST DUP2 PUSH1 0x40 MSTORE DUP4 DUP2 MSTORE DUP7 PUSH1 0x20 DUP6 DUP9 ADD ADD GT ISZERO PUSH2 0x6D0 JUMPI PUSH1 0x0 DUP1 REVERT JUMPDEST DUP4 PUSH1 0x20 DUP8 ADD PUSH1 0x20 DUP4 ADD CALLDATACOPY PUSH1 0x0 PUSH1 0x20 DUP6 DUP4 ADD ADD MSTORE DUP1 SWAP5 POP POP POP POP POP SWAP3 SWAP2 POP POP JUMP JUMPDEST PUSH1 0x0 DUP1 PUSH1 0x40 DUP4 DUP6 SUB SLT ISZERO PUSH2 0x703 JUMPI PUSH1 0x0 DUP1 REVERT JUMPDEST DUP3 CALLDATALOAD PUSH8 0xFFFFFFFFFFFFFFFF DUP2 GT ISZERO PUSH2 0x71A JUMPI PUSH1 0x0 DUP1 REVERT JUMPDEST PUSH2 0x726 DUP6 DUP3 DUP7 ADD PUSH2 0x663 JUMP JUMPDEST SWAP3 POP POP PUSH1 0x20 DUP4 ADD CALLDATALOAD DUP1 ISZERO ISZERO DUP2 EQ PUSH2 0x73C JUMPI PUSH1 0x0 DUP1 REVERT JUMPDEST DUP1 SWAP2 POP POP SWAP3 POP SWAP3 SWAP1 POP JUMP JUMPDEST PUSH1 0x0 DUP1 PUSH1 0x0 PUSH1 0x60 DUP5 DUP7 SUB SLT ISZERO PUSH2 0x75C JUMPI PUSH1 0x0 DUP1 REVERT JUMPDEST DUP4 CALLDATALOAD PUSH8 0xFFFFFFFFFFFFFFFF DUP1 DUP3 GT ISZERO PUSH2 0x774 JUMPI PUSH1 0x0 DUP1 REVERT JUMPDEST PUSH2 0x780 DUP8 DUP4 DUP9 ADD PUSH2 0x663 JUMP JUMPDEST SWAP5 POP PUSH1 0x20 DUP7 ADD CALLDATALOAD SWAP2 POP DUP1 DUP3 GT ISZERO PUSH2 0x796 JUMPI PUSH1 0x0 DUP1 REVERT JUMPDEST PUSH2 0x7A2 DUP8 DUP4 DUP9 ADD PUSH2 0x663 JUMP JUMPDEST SWAP4 POP PUSH1 0x40 DUP7 ADD CALLDATALOAD SWAP2 POP DUP1 DUP3 GT ISZERO PUSH2 0x7B8 JUMPI PUSH1 0x0 DUP1 REVERT JUMPDEST POP PUSH2 0x7C5 DUP7 DUP3 DUP8 ADD PUSH2 0x663 JUMP JUMPDEST SWAP2 POP POP SWAP3 POP SWAP3 POP SWAP3 JUMP JUMPDEST PUSH1 0x0 PUSH1 0x20 DUP3 DUP5 SUB SLT ISZERO PUSH2 0x7E1 JUMPI PUSH1 0x0 DUP1 REVERT JUMPDEST DUP2 CALLDATALOAD PUSH8 0xFFFFFFFFFFFFFFFF DUP2 GT ISZERO PUSH2 0x7F8 JUMPI PUSH1 0x0 DUP1 REVERT JUMPDEST PUSH2 0x804 DUP5 DUP3 DUP6 ADD PUSH2 0x663 JUMP JUMPDEST SWAP5 SWAP4 POP POP POP POP JUMP JUMPDEST PUSH1 0x1 DUP2 DUP2 SHR SWAP1 DUP3 AND DUP1 PUSH2 0x820 JUMPI PUSH1 0x7F DUP3 AND SWAP2 POP JUMPDEST PUSH1 0x20 DUP3 LT DUP2 SUB PUSH2 0x840 JUMPI PUSH4 0x4E487B71 PUSH1 0xE0 SHL PUSH1 0x0 MSTORE PUSH1 0x22 PUSH1 0x4 MSTORE PUSH1 0x24 PUSH1 0x0 REVERT JUMPDEST POP SWAP2 SWAP1 POP JUMP JUMPDEST PUSH1 0x0 DUP3 MLOAD PUSH2 0x858 DUP2 DUP5 PUSH1 0x20 DUP8 ADD PUSH2 0x5B0 JUMP JUMPDEST SWAP2 SWAP1 SWAP2 ADD SWAP3 SWAP2 POP POP JUMP JUMPDEST PUSH1 0x40 DUP2 MSTORE PUSH1 0x0 PUSH2 0x875 PUSH1 0x40 DUP4 ADD DUP6 PUSH2 0x5D4 JUMP JUMPDEST SWAP1 POP DUP3 ISZERO ISZERO PUSH1 0x20 DUP4 ADD MSTORE SWAP4 SWAP3 POP POP POP JUMP JUMPDEST PUSH1 0x1F DUP3 GT ISZERO PUSH2 0x8D0 JUMPI PUSH1 0x0 DUP2 DUP2 MSTORE PUSH1 0x20 DUP2 KECCAK256 PUSH1 0x1F DUP6 ADD PUSH1 0x5 SHR DUP2 ADD PUSH1 0x20 DUP7 LT ISZERO PUSH2 0x8AD JUMPI POP DUP1 JUMPDEST PUSH1 0x1F DUP6 ADD PUSH1 0x5 SHR DUP3 ADD SWAP2 POP JUMPDEST DUP2 DUP2 LT ISZERO PUSH2 0x8CC JUMPI DUP3 DUP2 SSTORE PUSH1 0x1 ADD PUSH2 0x8B9 JUMP JUMPDEST POP POP POP JUMPDEST POP POP POP JUMP JUMPDEST DUP2 MLOAD PUSH8 0xFFFFFFFFFFFFFFFF DUP2 GT ISZERO PUSH2 0x8EF JUMPI PUSH2 0x8EF PUSH2 0x64D JUMP JUMPDEST PUSH2 0x903 DUP2 PUSH2 0x8FD DUP5 SLOAD PUSH2 0x80C JUMP JUMPDEST DUP5 PUSH2 0x886 JUMP JUMPDEST PUSH1 0x20 DUP1 PUSH1 0x1F DUP4 GT PUSH1 0x1 DUP2 EQ PUSH2 0x938 JUMPI PUSH1 0x0 DUP5 ISZERO PUSH2 0x920 JUMPI POP DUP6 DUP4 ADD MLOAD JUMPDEST PUSH1 0x0 NOT PUSH1 0x3 DUP7 SWAP1 SHL SHR NOT AND PUSH1 0x1 DUP6 SWAP1 SHL OR DUP6 SSTORE PUSH2 0x8CC JUMP JUMPDEST PUSH1 0x0 DUP6 DUP2 MSTORE PUSH1 0x20 DUP2 KECCAK256 PUSH1 0x1F NOT DUP7 AND SWAP2 JUMPDEST DUP3 DUP2 LT ISZERO PUSH2 0x967 JUMPI DUP9 DUP7 ADD MLOAD DUP3 SSTORE SWAP5 DUP5 ADD SWAP5 PUSH1 0x1 SWAP1 SWAP2 ADD SWAP1 DUP5 ADD PUSH2 0x948 JUMP JUMPDEST POP DUP6 DUP3 LT ISZERO PUSH2 0x985 JUMPI DUP8 DUP6 ADD MLOAD PUSH1 0x0 NOT PUSH1 0x3 DUP9 SWAP1 SHL PUSH1 0xF8 AND SHR NOT AND DUP2 SSTORE JUMPDEST POP POP POP POP POP PUSH1 0x1 SWAP1 DUP2 SHL ADD SWAP1 SSTORE POP JUMP JUMPDEST PUSH1 0x40 DUP2 MSTORE PUSH1 0x0 PUSH2 0x9A8 PUSH1 0x40 DUP4 ADD DUP6 PUSH2 0x5D4 JUMP JUMPDEST DUP3 DUP2 SUB PUSH1 0x20 DUP5 ADD MSTORE PUSH2 0x9BA DUP2 DUP6 PUSH2 0x5D4 JUMP JUMPDEST SWAP6 SWAP5 POP POP POP POP POP JUMP INVALID LOG2 PUSH5 0x6970667358 0x22 SLT KECCAK256 0xAA 0xFC EXTCODESIZE 0xB8 0xE2 0xE0 0xEC DUP14 PUSH29 0x45800AA4A627A06ECBAF51F6DBB72081AA8B1C16016FD564736F6C6343 STOP ADDMOD EQ STOP CALLER "
				},
				"gasEstimates": {
					"creation": {
						"codeDepositCost": "510600",
						"executionCost": "543",
						"totalCost": "511143"
					},
					"external": {
						"_exists(bytes32)": "2497",
						"certificados(bytes32)": "infinite",
						"registrar(string,string,string)": "infinite",
						"setValidity(string,bool)": "infinite",
						"verificar(string)": "infinite"
					}
				},
				"methodIdentifiers": {
					"_exists(bytes32)": "65d9baa7",
					"certificados(bytes32)": "11b09380",
					"registrar(string,string,string)": "481fceca",
					"setValidity(string,bool)": "219c8702",
					"verificar(string)": "f84cbd4d"
				}
			},
			"storageLayout": {
				"storage": [
					{
						"astId": 14,
						"contract": "contracts/Certificados.sol:Certificados",
						"label": "_exists",
						"offset": 0,
						"slot": "0",
						"type": "t_mapping(t_bytes32,t_bool)"
					},
					{
						"astId": 19,
						"contract": "contracts/Certificados.sol:Certificados",
						"label": "certificados",
						"offset": 0,
						"slot": "1",
						"type": "t_mapping(t_bytes32,t_struct(Certificado)10_storage)"
					}
				],
				"types": {
					"t_bool": {
						"encoding": "inplace",
						"label": "bool",
						"numberOfBytes": "1"
					},
					"t_bytes32": {
						"encoding": "inplace",
						"label": "bytes32",
						"numberOfBytes": "32"
					},
					"t_mapping(t_bytes32,t_bool)": {
						"encoding": "mapping",
						"key": "t_bytes32",
						"label": "mapping(bytes32 => bool)",
						"numberOfBytes": "32",
						"value": "t_bool"
					},
					"t_mapping(t_bytes32,t_struct(Certificado)10_storage)": {
						"encoding": "mapping",
						"key": "t_bytes32",
						"label": "mapping(bytes32 => struct Certificados.Certificado)",
						"numberOfBytes": "32",
						"value": "t_struct(Certificado)10_storage"
					},
					"t_string_storage": {
						"encoding": "bytes",
						"label": "string",
						"numberOfBytes": "32"
					},
					"t_struct(Certificado)10_storage": {
						"encoding": "inplace",
						"label": "struct Certificados.Certificado",
						"members": [
							{
								"astId": 3,
								"contract": "contracts/Certificados.sol:Certificados",
								"label": "codigo",
								"offset": 0,
								"slot": "0",
								"type": "t_string_storage"
							},
							{
								"astId": 5,
								"contract": "contracts/Certificados.sol:Certificados",
								"label": "nombre",
								"offset": 0,
								"slot": "1",
								"type": "t_string_storage"
							},
							{
								"astId": 7,
								"contract": "contracts/Certificados.sol:Certificados",
								"label": "metadata",
								"offset": 0,
								"slot": "2",
								"type": "t_string_storage"
							},
							{
								"astId": 9,
								"contract": "contracts/Certificados.sol:Certificados",
								"label": "valido",
								"offset": 0,
								"slot": "3",
								"type": "t_bool"
							}
						],
						"numberOfBytes": "128"
					}
				}
			},
			"userdoc": {
				"kind": "user",
				"methods": {},
				"version": 1
			}
		}
	}
}